:020000040800F2
:10000000400A002021170008C1020008C3020008AE
:10001000C7020008CB020008CF0200080000000061
:10002000000000000000000000000000D3020008F3
:10003000D502000800000000D7020008D90200081D
:100040003B1700083B1700083B1700083B17000848
:100050003B1700083B1700083B1700083B17000838
:100060003B1700083B1700083B1700083B17000828
:100070003B1700083B1700083B1700083B17000818
:100080003B1700083B1700083B1700083B17000808
:100090003B1700083B1700083B1700083B170008F8
:1000A0003B1700083B1700083B1700083B170008E8
:1000B0003B1700083B1700083B1700083B170008D8
:1000C0003B1700083B1700083B1700083B170008C8
:1000D0003B170008551600083B1700083B1700089F
:1000E0003B1700083B1700083B1700083B170008A8
:1000F0003B1700083B1700083B1700083B17000898
:100100003B1700083B1700089B0C00083B17000832
:100110003B1700083B1700083B1700083B17000877
:100120003B1700083B1700083B1700083B17000867
:1001300000F002F800F06AF80AA090E8000C82448F
:100140008344AAF10107DA4501D100F05FF8AFF26C
:10015000090EBAE80F0013F0010F18BFFB1A43F0A5
:1001600001031847D0630000F06300000A444FF019
:10017000000C10F8013B13F0070408BF10F8014B06
:100180001D1108BF10F8015B641E05D010F8016B4B
:10019000641E01F8016BF9D113F0080F1EBF10F8AF
:1001A000014BAD1C0C1B09D16D1E58BF01F801CBD2
:1001B000FAD505E014F8016B01F8016B6D1EF9D555
:1001C0009142D6D37047000000230024002500266A
:1001D000103A28BF78C1FBD8520728BF30C148BFAA
:1001E0000B607047662905F04284642902F0F487A9
:1001F000002070471FB503F045FB040000200021DC
:1002000004F042FCE0601FBD10B510BD03F03AFCE5
:100210001146FFF7EFFF00F009F803F058FC03B4B4
:10022000FFF7F2FF03BC01F0B9F900004FF4A06042
:1002300002F01AF801F048F94FF4E13001F0BDF98D
:1002400000F03CF901F079F800F032FF00F04FFEC9
:100250000023114A1149124800F0CBFE00231A4630
:100260001049114800F0C5FE0023104A10491148FA
:1002700000F0BFFE00231A460F49104800F0B9FEF7
:10028000472144F61F6000F035F9472143F2D300BF
:1002900000F080F900BFFEE762BE3C39E3A51B3DDC
:1002A000A00200200000B042F002002017B7513930
:1002B0000AD7233D780200200000A042C802002097
:1002C000704700BFFEE700BFFEE700BFFEE700BFCC
:1002D000FEE7704770477047704700000CB500207C
:1002E000019000906C48006840F480306A490860D2
:1002F00000BF6948006800F4003000900198401C7D
:100300000190009818B90198B0F5A06FF1D162483A
:10031000006800F4003010B10120009001E00020DE
:1003200000900098012843D15C48006840F010001C
:100330005A4908600846006820F003000860084633
:10034000006840F002000860534840685249486025
:100350000846406848600846406840F4806048604D
:100360000846406820F47C1048600846406840F425
:10037000E81048600846006840F08070086000BFE0
:100380004548006800F000700028F9D042484068F5
:1003900020F00300404948600846406840F00200F1
:1003A000486000BF3C48406800F00C000828F9D1C4
:1003B0000CBD10B5FFF792FF10BD10B536480068B0
:1003C00040F001003449086008464068344908405C
:1003D0003149486008460068324908402E490860A3
:1003E0000846006820F4802008600846406820F431
:1003F000FE0048604FF41F008860FFF7DAFF4FF0FF
:1004000000602949086010BD10B5002100200022BD
:10041000214B5B6803F00C0121B1042906D00829A7
:1004200028D107E0214B224C236027E01F4B204CB2
:10043000236023E0184B5B6803F47010164B5B6875
:1004400003F48032022303EB904022B9194B43435B
:10045000174C23600DE0104B5B6803F4003323B1AD
:10046000144B4343124C236003E0104B4343104CA6
:10047000236003E00D4B0E4C236000BF00BF064B12
:100480005B68C3F303130C4CE15C094B1B68CB4066
:10049000074C236010BD0000001002400020024005
:1004A0000000FFF8FFFFF6FE08ED00E000127A0002
:1004B0000000002000093D000400002008B50121D3
:1004C000102001F069FC4FF40050ADF8000010203E
:1004D0008DF8030003208DF802006946044801F0FE
:1004E0009FF94FF40051024801F047FA08BD00009F
:1004F0000010014030B589B005460C4601210220AC
:1005000001F057FC0121042001F046FCC020ADF8A9
:10051000200018208DF8230003208DF8220008A960
:100520001A4801F07DF9ADF81850ADF814400020DC
:10053000ADF81A00ADF8160005A9154801F0D6FF70
:100540007020ADF804000120ADF806000020ADF8E1
:100550000A000220ADF80C0001A90D4802F003F8D2
:1005600001A90B4802F041F80821094802F04AFCB1
:100570000821074802F04FFC0121054802F012FC57
:100580000121034802F00EFB09B030BD0008014014
:10059000000400407FB505460C460121082001F00B
:1005A00008FCADF80850ADF804400020ADF80A0092
:1005B000ADF8060001A9F94801F098FF01221146A3
:1005C000F64802F00AFB32208DF8000001208DF879
:1005D000010003208DF8020001208DF80300684619
:1005E00001F047FE0121ED4802F0DCFA7FBD4A1E12
:1005F00091B203E0002242544A1E91B20029F9DC74
:100600007047704703468B4201DA084670479342B1
:1006100001DD1046FAE71846F8E72DE9F0410646F5
:100620000F46DF49304605F0A2F9804605F026F86E
:1006300004B23946DB4804F0F1FE804605F01EF8AE
:1006400005B240F2426240F216512046FFF7DAFF4F
:10065000044640F2646240F23C512846FFF7D2FF64
:100660000546A1B2D04802F035FDA9B2CE4802F04D
:1006700033FDBDE8F0812DE9F04F89B0CB480890FB
:10068000CB4807900020069005900490C948006868
:10069000401DC84908600846006805F023F8044674
:1006A000C24904F029FF0590059804F08BFE064628
:1006B000C14AC24B04F092FC044604F0FBF90490DA
:1006C000BF480690BF49488A04F074FCCDE9020196
:1006D000049804F077FECDE9000104F085F90646A0
:1006E0000F46079804F06EFE804632463B4604F003
:1006F00075FC0446DDE9022304F00EFA824604F09C
:10070000D9F9B1490860AF49088A04F053FC804622
:100710008946049804F056FECDE9000104F016F96C
:1007200082468B46079804F04DFE52465B46CDE963
:10073000020104F053FC064642464B4604F0ECF935
:10074000044604F0B7F9A1490860A148008804F004
:10075000C9FF04469F4B22469C4801689E4800F012
:1007600007FC9E4B9E4802689A4801689D4800F02D
:10077000FFFB9D48008804F0B5FF04469B4B2246D2
:10078000914801689A4800F0F3FB9A4B9A48026836
:1007900096480168994800F0EBFB964801688F483D
:1007A0000068FFF73AFF09B0BDE8F08F7047704767
:1007B00010B593480068B0F5FA6F0ED28149498AA6
:1007C00001F11E0004F076FF7F4908607D49088A28
:1007D00004F088FF7D4908603FE089480068B0F573
:1007E0007A6F0ED27749488A04F07CFF7649086018
:1007F0007449098A01F11E0004F05CFF7349086026
:100800002BE07F48006841F2707188420ED26D493A
:10081000498AA1F11E0004F04DFF6B490860694947
:10082000088A04F05FFF6949086016E074480068B0
:10083000B0F5FA5F0ED26349488A04F053FF62496B
:1008400008606049098AA1F11E0004F033FF5F4986
:10085000086002E000206A4908605D48008838B9F5
:100860006148008820B900210846FFF7D6FE2DE038
:100870005748008804F036FF0446564B224653483A
:100880000168554800F074FB544B554802685148C4
:100890000168544800F06CFB5348008804F022FFC4
:1008A0000446524B224648480168514800F060FB1C
:1008B000504B514802684D480168504800F058FBC1
:1008C0004C48016845480068FFF7A7FE10BD10B509
:1008D0004B48006840F6B831884206D249483A4948
:1008E000086049483949086005E0464836490860CB
:1008F0004648364908603648008838B93A48008882
:1009000020B900210846FFF788FE2DE03048008816
:1009100004F0E8FE04462F4B22462C4801682E487E
:1009200000F026FB2D4B2E4802682A4801682D480E
:1009300000F01EFB2C48008804F0D4FE04462B4B2C
:100940002246214801682A4800F012FB294B2A4818
:10095000026826480168294800F00AFB254801681A
:100960001E480068FFF759FE10BD10B51549488AAA
:1009700004F0B8FE144908601249088A04F0B2FE77
:10098000124908601248008838B91748008820B911
:1009900000210846FFF741FE68E039E0000C004006
:1009A00000A0B6440080BB44000400400000164490
:1009B0000000F041680000206E861BF0F92119400C
:1009C0004ABE0C40140000205400002058000020B3
:1009D0003E0000204C000020A00200205C0000200F
:1009E00044000020F00200203C00002050000020C5
:1009F000780200206000002048000020C80200208B
:100A0000380000200000C84200005C4300002F4373
:100A1000FE48008804F066FE0446FD4B2246FD4871
:100A20000168FD4800F0A4FAFC4BFD480268F84854
:100A30000168FC4800F09CFAFB48008804F052FE74
:100A40000446FA4B2246FA480168FA4800F090FA48
:100A5000F94BFA480268F5480168F94800F088FA4D
:100A6000F5480168ED480068FFF7D7FD10BD10B5E7
:100A7000F448EF490860F448E6490860E348008814
:100A800038B9E948008820B900210846FFF7C5FDBC
:100A90002DE0DE48008804F025FE0446DC4B2246AB
:100AA000DC480168DC4800F063FADC4BDC48026893
:100AB000D7480168DB4800F05BFADB48008804F0A7
:100AC00011FE0446D94B2246D9480168D94800F0A6
:100AD0004FFAD94BD9480268D4480168D84800F089
:100AE00047FAD5480168CD480068FFF796FD10BD6C
:100AF0002DE9F0474FF00008002500260027D348D5
:100B0000008800F40040002874D0D04890F800809D
:100B1000CF4800785B286CD1A8F10100CC49085C73
:100B20005D28F8D1012433E0C948005D00F0F000F1
:100B300030280CD15DB906EB86004FF6FF7101EA53
:100B40004006C348005D3038304486B21EE0C048DD
:100B5000005D00F0F00030280DD1012D0BD107EB26
:100B600087004FF6FF7101EA4007B948005D303851
:100B7000384487B20AE0B648005D2C2806D1B44953
:100B8000601C085C202801D105B90125601CC4B295
:100B9000A8F10100A042C7DC9C480680A24807805B
:100BA0009A480088AB490988401A322816DC9748D1
:100BB0000088A8490988401A10F1320F0EDB9A48C4
:100BC0000088A5490988401A322807DC9648008821
:100BD000A1490988401A10F1320F0CDA9F480078B9
:100BE00048B19C480088894908809B4800888E4904
:100BF000088044E04FE09A48406899498860084678
:100C0000006848608148008892490988401A9449E0
:100C100008609448406893498860084600684860C6
:100C2000814800888C490988401A8E4908608C499F
:100C300009688B4A52681144894A9268881804F0FE
:100C400039FD8146884904F057FC7549086085499B
:100C50000968844A52681144824A9268881804F0EC
:100C600029FD8146804904F047FC744908606E48BC
:100C70000088794908806548008876490880002006
:100C800072490880012240F22551784801F0C3F9E9
:100C90000020BDE8F0870120FBE770B50121744812
:100CA00002F049FA002872D072480068401D71496C
:100CB0000860FFF71DFF58B100210846FFF7ADFCA3
:100CC00066480078012876D100206449087072E0F7
:100CD00069480078092867D2DFE800F06605111D31
:100CE0002935414D5A0065480078012804D100207B
:100CF0006049086061490870FFF7B9FE54E05F4839
:100D00000078012804D100205A4908605B49087026
:100D1000FFF72BFE48E059480078012804D1002055
:100D20005449086055490870FFF7D1FD3CE053482D
:100D30000078012804D100204E4908604F4908700E
:100D4000FFF736FD30E04D480078012804D100203F
:100D50004849086049490870FFF729FD24E04748E1
:100D60000078012804D100204249086043490870F6
:100D7000FFF71CFD18E041480078012804D100204D
:100D80003C4908603D490870FFF775FC0CE0A9E09C
:100D90003A480078012804D10020364908603749D4
:100DA0000870FFF72EFC00BF00BF2C48007810B978
:100DB00001202A49087014213148FFF718FC134814
:100DC000028830A12E4802F0CBF92D4A00210846B6
:100DD00000F02CFA14212A48FFF709FC1248028877
:100DE0002BA1274802F0BCF9254A0221002000F07F
:100DF0001DFA0B48006804F0E5FA044622460B464B
:100E000026A11F4802F0ACF91D4A4FE03E00002029
:100E10004C00002058000020A00200205C000020B0
:100E200044000020F00200203C0000205000002080
:100E300054000020780200206000002048000020BC
:100E4000C80200200000C84200005C4334020020B9
:100E50001803002042000020400000206400002011
:100E60004C020020580200200000404000380140A1
:100E7000000C0040380000206500002066000020C3
:100E8000640200206C6F63615F783A25356400006E
:100E90006C6F63615F793A25356400007370656536
:100EA000645F783A25332E3166000000042100206B
:100EB00000F0BCF92448006804F084FA0446224695
:100EC0000B4622A1254802F04BF9244A06210020B6
:100ED00000F0ACF92248006808B9012000E00020C9
:100EE0001F49086001211F4802F036F970BD08B59E
:100EF0000121282000F050FF3820ADF8000010201C
:100F00008DF8030003208DF802006946164800F0B2
:100F100087FC0420ADF8000010208DF803000320AA
:100F20008DF802006946114800F07AFC04210F4850
:100F300000F023FD10210C4800F01FFD28210A4875
:100F400000F01DFD08BD00004800002073706565BD
:100F5000645F793A25332E31660000006402002078
:100F6000B4012242000C0040000C0140001401407A
:100F70002DE9F04104460D4616461F462068606084
:100F80003146284604F0FEFC20602168A06804F089
:100F900045FAA0601949A06804F0B8FC02D21748CD
:100FA000A06006E01649A06804F0B0FB01D2144826
:100FB000A0602168E06804F0DDFBA061A168206901
:100FC00004F0D8FBE061D4E9000104F0DBFC8046CA
:100FD000616904F0CFFB2062D4E9060104F01EFA37
:100FE0008046216A04F01AFA6062606A3860BDE8DF
:100FF000F081C16002614361704700000000FA4364
:101000000000FAC370B504460E462EB14FF480615D
:10101000FE4800F0B2FC04E04FF48061FB4800F0B1
:10102000AEFC4FF48051F94800F0A9FC00251BE00C
:101030004FF40051F54800F0A2FC04F0800028B104
:101040004FF40041F14800F098FC04E04FF40041F7
:10105000EE4800F094FC4FF40051EC4800F08DFC99
:101060006006040E681CC5B2082DE1DB4FF4805108
:10107000E64800F082FC4FF48061E44800F07DFC1B
:1010800070BD70B504460D4605F1B001C8B200212F
:10109000FFF7B8FF102141EA14100021FFF7B2FF5B
:1010A00004F00F0141F001000021FFF7ABFF70BD1C
:1010B00010B500218D20FFF7A5FF00211420FFF7B8
:1010C000A1FF0021AF20FFF79DFF10BD10B500214B
:1010D0008D20FFF797FF00211020FFF793FF0021DD
:1010E000AE20FFF78FFF10BD70B5002419E004F1AA
:1010F000B001C8B20021FFF785FF00210846FFF7C5
:1011000081FF00211020FFF77DFF002505E0012170
:101110000020FFF777FF681CC5B2802DF7DB601C4D
:10112000C4B2082CE3DB70BD2DE9F04107460E4642
:10113000904600250024A8F12000C5B27F2F02DDD3
:101140000027B01CC6B231463846FFF79AFF00248C
:1011500008E004EB0511AE4A505C0121FFF752FF95
:10116000601CC4B2082CF4DB701CC1B23846FFF717
:1011700088FF002409E004EB05110831A44A505C03
:101180000121FFF73FFF601CC4B2082CF3DBBDE870
:10119000F08110B50246012000E050430B00A1F1A0
:1011A0000104E1B2F9D110BD2DE9FF5F0746914678
:1011B0001D460E9E4FF0000A002433E0281B401EFF
:1011C000C1B20A20FFF7E5FFB9FBF0F00A21B0FB3E
:1011D000F1F201FB1208BAF1000F13D1681EA04210
:1011E00010DDB8F1000F0BD1B34606EBDB714910EF
:1011F00001FB0471C8B220220199FFF795FF0FE0AF
:101200004FF0010AB34606EBDB71491001FB047194
:10121000C8B208F13001CAB20199FFF785FF00BFDB
:10122000601CC4B2AC42C9DBBDE8FF9F2DE9F041B0
:1012300004460F46154600260EE0AA5D39462046B4
:10124000FFF772FF04F10800C4B2782C02DD00241D
:10125000B81CC7B2701CC6B2A85D0028EDD1BDE8AD
:10126000F0812DE9F04180460E46154600273146B3
:101270004046FFF706FF00240AE0664A02EB8511AC
:10128000085D0121FFF7BEFE781CC7B2601CC4B226
:10129000102CF2DB701CC1B24046FFF7F2FE0024B6
:1012A0000CE06900491C5B4A02EB4111085D012119
:1012B000FFF7A8FE781CC7B2601CC4B2102CF0DB8C
:1012C000BDE8F0812DE9F05F06460F4690461C46CA
:1012D000DDF828A04FF0000BE11704EB5171C910A5
:1012E000A4EBC10131B92046E11704EB5171C1F300
:1012F000C70506E02046E11704EB5171C910491CEF
:10130000CDB23D4615E029463046FFF7BAFEB1465C
:101310000BE059460BF1010B1AF801000121FFF710
:1013200071FE09F1010000F0FF09C145F1DB681C05
:10133000C5B2A542E7DBBDE8F09F08B5012120203A
:1013400000F02AFD0420ADF8000010208DF8030005
:1013500003208DF8020069462F4800F061FA04214D
:101360002D4800F00AFB0121082000F015FD4BF686
:101370000240ADF8000010208DF8030003208DF826
:1013800002006946214800F04BFA4BF602411F4823
:1013900000F0F3FA4FF400611C4800F0EEFA64200C
:1013A00000F0CFF84FF40061184800F0E8FAC820C8
:1013B00000F0C7F84FF40061144800F0DEFA002195
:1013C000AE20FFF71FFE00210846FFF71BFE00219D
:1013D0001020FFF717FE00214020FFF713FE002129
:1013E0008120FFF70FFE0021CF20FFF70BFE002129
:1013F000A120FFF707FE0021C820FFF703FE002110
:10140000A620FFF7FFFD0021A82007E0000C014007
:101410008A5D00086C00002000140140FFF7F2FD17
:1014200000213F20FFF7EEFD0021D320FFF7EAFD6A
:1014300000210846FFF7E6FD0021D520FFF7E2FD79
:1014400000218020FFF7DEFD0021D920FFF7DAFD23
:101450000021F120FFF7D6FD0021DA20FFF7D2FDB1
:1014600000211220FFF7CEFD0021DB20FFF7CAFD8F
:1014700000214020FFF7C6FD00212020FFF7C2FD1C
:1014800000210220FFF7BEFD00218D20FFF7BAFDED
:1014900000211420FFF7B6FD0021A420FFF7B2FDC4
:1014A0000021A620FFF7AEFD0021AF20FFF7AAFD27
:1014B0000021AF20FFF7A6FDFFF716FE002108462A
:1014C000FFF7DFFD08BD000010B56FF0040000F06D
:1014D0001AFF2E4800682E49B0FBF1F02D49087024
:1014E0000846007800EB4001C1EBC0104FF6FF71D9
:1014F00001EAC0002849088010BD0146254A12783B
:101500004A434FF0E0235A6100229A611A46126959
:1015100042F001021A6100BF4FF0E022106900F0B2
:1015200001021AB100F48032002AF5D04FF0E02217
:10153000126922F001024FF0E0231A6100229A6141
:1015400070470146144A12884A434FF0E0235A611B
:1015500000229A611A46126942F001021A6100BF24
:101560004FF0E022106900F001021AB100F480325D
:10157000002AF5D04FF0E022126922F001024FF06C
:10158000E0231A6100229A617047000000000020E9
:1015900000127A002C0200202E020020014600BF1B
:1015A000704700BF5A4A128802F04002002AF9D060
:1015B000C2B2574B1B1D1A80704710B586B0044647
:1015C000012144F2040000F0E7FB4FF40070ADF895
:1015D000140003208DF8160018208DF8170005A9B7
:1015E0004C4800F01DF94FF48060ADF81400042061
:1015F0008DF8170005A9474800F012F925208DF84D
:10160000000000208DF8010003208DF80200012069
:101610008DF80300684600F02CFE01940020ADF820
:101620000800ADF80A00ADF80C00ADF810000C2071
:10163000ADF80E0001A9364800F055FC012240F239
:101640002551334800F0E7FC0121314800F0D7FC78
:1016500006B010BD10B540F225512D4800F0C0FD78
:10166000002853D02A4800F03BFDC4B22A48008825
:1016700010B95B2C00D010BD2748008828B15B2C26
:1016800003D1002024490880F5E723480088012879
:1016900005D12C2C03D100201F490880EBE71E4800
:1016A000008800F40040F8B91B48008800F480402E
:1016B00090B10A2C03D000201749088026E0164874
:1016C000008840F4004014490880002240F225516F
:1016D0000F4800F0A0FC19E00D2C06D10E48008840
:1016E00040F480400C49088010E00B480088C0F3AB
:1016F0000D000A490C5408480088401C064908801F
:1017000008460088C72801DD0020088000BFB2E736
:101710000038014000080140340200201803002076
:101720000948804709480047FEE7FEE7FEE7FEE775
:10173000FEE7FEE7FEE7FEE7FEE7FEE704480549B1
:10174000054A064B70470000BB0300083101000842
:1017500040040020400A00204006002040060020EF
:1017600010B50446CC48844208D10121042000F081
:101770002DFB0021042000F029FB46E0C7488442ED
:1017800008D10121082000F021FB0021082000F0F1
:101790001DFB3AE0C248844208D10121102000F02C
:1017A00015FB0021102000F011FB2EE0BD48844203
:1017B00008D10121202000F009FB0021202000F0A9
:1017C00005FB22E0B848844208D10121402000F006
:1017D000FDFA0021402000F0F9FA16E0B3488442F7
:1017E00008D10121802000F0F1FA0021802000F0D2
:1017F000EDFA0AE0AE48844207D10121801500F0DD
:10180000E5FA0021A01500F0E1FA10BD10B50121A4
:10181000084600F0DBFA0021012000F0D7FA10BDE5
:101820002DE9F04102460025002600200023002477
:10183000002791F803C00CF00F0591F803C00CF0DD
:10184000100CBCF1000F03D091F802C04CEA050562
:1018500091F800C0BCF1000F31D0146800202BE0DB
:101860004FF0010C0CFA00F3B1F800C00CEA0306CB
:101870009E4220D183004FF00F0C0CFA03F7BC43BB
:1018800005FA03FC4CEA040491F803C0BCF1280FEC
:1018900006D14FF0010C0CFA00FCC2F814C00AE0AB
:1018A00091F803C0BCF1480F05D14FF0010C0CFAC0
:1018B00000FCC2F810C0401C0828D1D31460B1F855
:1018C00000C0BCF1FF0F34DD546800202EE000F1B1
:1018D000080C4FF0010808FA0CF3B1F800C00CEA4C
:1018E00003069E4221D183004FF00F0C0CFA03F740
:1018F000BC4305FA03FC4CEA040491F803C0BCF1B4
:10190000280F05D100F1080C08FA0CF8C2F8148071
:1019100091F803C0BCF1480F07D100F1080C4FF05B
:10192000010808FA0CF8C2F81080401C0828CED331
:101930005460BDE8F0814FF6FF7101800221817093
:101940000421C17070470246002093680B400BB120
:10195000012000E0002070470146886880B270478F
:1019600002460020D3680B400BB1012000E00020AC
:1019700070470146C86880B2704701617047416195
:1019800070470AB1016100E041617047C160704772
:101990004FF480320A438261816182618269826987
:1019A000704702460020434B18684FF6807318407A
:1019B00040EA021008433F4B186070473E49C86137
:1019C0007047F0B50A46002300240021002500F0EE
:1019D0000046B6F1004F02D1364EF16901E0354EB6
:1019E0007168C0F3034583B200F44016B6F5401F9A
:1019F00008D121F070612F4E766826F070662D4F69
:101A00007E6012E000F48016B6F5801F06D1032632
:101A100006FA05F4A14341F0706106E0460D360177
:101A200003FA06F6B14341F0706122B1460D36016A
:101A300003FA06F6314300F00046B6F1004F02D13A
:101A40001C4EF16101E01B4E7160F0BD30B500220B
:101A50008B071C0F0F2303FA04F2164B08338C106C
:101A600053F824309343134C08348D1044F8253038
:101A700023468C1053F824308C07240F00FA04F40A
:101A800023430C4C08348D1044F8253030BD0A49EE
:101A9000DC3108607047000000080140000C014084
:101AA000001001400014014000180140001C0140DA
:101AB000002001400000014000002042DF48006893
:101AC00040F00100DD49086008464068DC490840F4
:101AD000DA49486008460068DA490840D749086092
:101AE0000846006820F4802008600846406820F41A
:101AF000FE0048604FF41F0088607047CF490968B6
:101B000021F48031CD4A11601146096821F4802109
:101B10001160B0F5803F03D0B0F5802F0ED106E004
:101B2000C649096841F48031C44A116007E0C349DD
:101B3000096841F4A021C14A116000E000BF00BF64
:101B4000704710B501460022002300204A11012AE7
:101B500002D1BA4C236806E0022A02D1B74C236AAC
:101B600001E0B64C636A01F01F02012494401C405E
:101B70000CB1012000E0002010BD38B5002000901D
:101B80000024002500BF3120FFF7DBFF0546009849
:101B9000401C00900098B0F5A06F01D0002DF2D04D
:101BA0003120FFF7CEFF08B1012400E000242046D9
:101BB00038BD01460020A14A106820F0F80040EA34
:101BC000C10010607047A0490860704702460020BD
:101BD0009A4B586820F47C1042EA01031843974B53
:101BE0005860704798490866704701460020934A3C
:101BF000506820F003000843506070478F484068E9
:101C000000F00C007047014600208C4A506820F01C
:101C1000F00008435060704701460020874A506832
:101C200020F4E06008435060704701460020834A7A
:101C3000506820F4605040EAC1005060704729B1FC
:101C40007E4A527A02437D4B5A7204E07B4A527AB2
:101C500082437A4B5A7270477B49D831086070478B
:101C600001460020754A506820F440400843506007
:101C700070470021714A20321170704A82F820109A
:101C8000012802D004280AD104E001216B4A203245
:101C9000117005E00521694A2032117000E000BF93
:101CA00000BF70476949086070476449096A014389
:101CB000624A11627047654944390860704730B51F
:101CC00000210022002400235C4D6D6805F00C010A
:101CD00021B1042905D0082923D105E05C4D056018
:101CE00022E05B4D05601FE0544D6D6805F47012F5
:101CF000524D6D6805F48034022505EB92421CB903
:101D0000544D554305600BE04C4D6D6805F40035AE
:101D10001DB1504D5543056002E04D4D55430560E2
:101D200002E04B4D056000BF00BF444D6D6805F0FB
:101D3000F0010909484D6B5C0568DD4045603F4D89
:101D40006D6805F4E061090A434D6B5C4568DD4050
:101D500085603A4D6D6805F46051C90A3E4D6B5C73
:101D60004568DD40C560354D6D6805F44041890B1F
:101D70003A4D6B5CC568B5FBF3F5056130BD29B123
:101D80002E4A526902432D4B5A6104E02B4A526994
:101D900082432A4B5A61704729B1284A926902430B
:101DA000264B9A6104E0254A92698243234B9A614B
:101DB000704729B1214AD2690243204BDA6104E01D
:101DC0001E4AD26982431D4BDA61704729B11B4A12
:101DD000D2680243194BDA6004E0184AD2688243A1
:101DE000164BDA60704729B1144A12690243134B4B
:101DF0001A6104E0114A12698243104B1A6170475C
:101E000012494039086070470F49C86470470B4950
:101E1000C87170470948406A40F0807007494862BD
:101E2000704701460020054A92680A400AB1012025
:101E300000E000207047014988727047001002409E
:101E40000000FFF8FFFFF6FE00004242800442421D
:101E500000127A0000093D003602002046020020F0
:101E600010B50446FB48844209D101218803FFF7DD
:101E7000ADFF00214FF48040FFF7A8FF32E0F648A5
:101E8000844209D101214804FFF7ADFF00214FF43E
:101E90000030FFF7A8FF25E0F048844209D1012176
:101EA0008804FFF7A0FF00214FF48020FFF79BFF7D
:101EB00018E0EB48844209D10121C804FFF793FFE1
:101EC00000214FF40020FFF78EFF0BE0E54884422D
:101ED00008D101210805FFF786FF00214FF480108B
:101EE000FFF781FF10BD2DE9F04786B005460E468D
:101EF0000024A24600BFA1460027B08900B100BF60
:101F00002F462C8A4CF6FF700440F08804432C8244
:101F1000AC894EF6F3100440B088318908437189CA
:101F200008430443AC81AC8A4FF6FF400440B089BB
:101F30000443AC8201A8FFF7C2FEC648874202D123
:101F4000DDF810A001E0DDF80CA0A88900F4004045
:101F500040B10AEBCA0000EB0A1031684900B0FB3F
:101F6000F1F807E00AEBCA0000EB0A1031688900BB
:101F7000B0FBF1F86420B8FBF0F004012009642103
:101F800001FB1089A88900F4004040B1322000EB29
:101F9000C900B0FBF1F000F00700044308E0322074
:101FA00000EB09106421B0FBF1F000F00F000443D6
:101FB0002C8106B0BDE8F0874FF416510160002176
:101FC0008180C18001810C21418100218181704784
:101FD00010B502460020108A4FF2FF0318400B880C
:101FE0004C8823438C882343CC8823431843108296
:101FF00010BD0021018041808180C180704721B1E6
:10200000828942F40052828104E082894DF6FF7396
:102010001A4082817047F0B503460024002600254F
:10202000002040F66A17B94200D100BF1846C1F33C
:10203000421401F01F06012707FA06F5012C01D111
:102040000C3004E0022C01D1103000E014301AB141
:1020500007682F43076002E00768AF430760F0BDE1
:102060001AB1838A0B43838202E0838A8B43838283
:102070007047028A4FF6F0731A400282028A0A43BE
:102080000282704782894FF2FF731A4082818289EF
:102090000A438281704721B1828942F00202828123
:1020A00004E082894FF6FD731A4082817047028AEC
:1020B0004FF6DF731A400282028A0A430282704797
:1020C00021B1028A42F48042028204E0028A4BF685
:1020D000FF731A4002827047C1F308028280704782
:1020E00001468888C0F308007047818941F00101EA
:1020F00081817047028BD2B20283028B42EA0122B5
:1021000002837047028B02F47F420283028B0A43F0
:102110000283704721B1828A42F02002828204E069
:10212000828A4FF6DF731A408282704721B1828A19
:1021300042F01002828204E0828A4FF6EF731A4066
:102140008282704721B1828A42F00802828204E0D2
:10215000828A4FF6F7731A408282704721B18289D2
:1021600042F40042828103E08289C2F30E0282813E
:10217000704721B1828A42F40062828204E0828A3E
:102180004FF2FF731A4082827047828A4FF6FB73C8
:102190001A408282828A0A438282704721B1828AEF
:1021A00042F00202828204E0828A4FF6FD731A40F6
:1021B0008282704702460020B1F5007F00D100BF47
:1021C00013880B400BB1012000E00020704701F4A0
:1021D0000072B2F5007F00D100BFCA430280704791
:1021E00070B50246002400230025002040F66A1640
:1021F000B14200D100BFC1F3421501F01F03012617
:1022000006FA03F3012D02D19689334006E0022D30
:1022100002D1168A334001E0968A33400C1201261F
:1022200006FA04F41688344013B10CB1012000E022
:10223000002070BD10B50022002340F66A14A142B0
:1022400000D100BF0A1201249440A3B2DC430480F1
:1022500010BD00000038014000440040004800402C
:10226000004C00400050004031490143314A1160A8
:10227000704770B5002100230F22C47804B32D4CA1
:10228000246804F4E064C4F5E064210AC1F10403A5
:10229000CA40447804FA03F18478144021430901C8
:1022A000254C0678A155047804F01F050124AC40A4
:1022B00005786D11AD0005F1E025C5F8004109E094
:1022C000047804F01F050124AC401C4D06787611FB
:1022D00045F8264070BD1A4A0A400243154B1B1FA1
:1022E0001A60704739B1134A121D12680243114B2C
:1022F0001B1D1A6006E00F4A121D126882430D4B27
:102300001B1D1A607047042808D14FF0E0210969AD
:1023100041F004014FF0E022116107E04FF0E021AD
:10232000096921F004014FF0E022116170470000BB
:102330000000FA050CED00E000E400E080E100E0C0
:1023400080FFFF1F10B50446FE48844208D10121DA
:10235000C014FFF73BFD0021E014FFF737FDC4E098
:10236000B4F1804F08D101210846FFF73CFD002160
:102370000120FFF738FDB8E0F348844208D101217D
:102380000220FFF730FD00210220FFF72CFDACE01A
:10239000EE48844208D101210420FFF724FD0021EA
:1023A0000420FFF720FDA0E0E948844208D1012184
:1023B0000820FFF718FD00210820FFF714FD94E026
:1023C000E448844208D101211020FFF70CFD0021D0
:1023D0001020FFF708FD88E0DF48844208D1012182
:1023E0002020FFF700FD00212020FFF7FCFC7CE00F
:1023F000DA48844208D101214014FFF7E7FC0021AC
:102400006014FFF7E3FC70E0D548844209D1012154
:10241000C804FFF7DBFC00214FF40020FFF7D6FCD7
:1024200063E0D048844209D101210805FFF7CEFCC2
:1024300000214FF48010FFF7C9FC56E0CA488442DF
:1024400009D101214805FFF7C1FC00214FF400101C
:10245000FFF7BCFC49E0C548844208D10121402077
:10246000FFF7C1FC00214020FFF7BDFC3DE0C04864
:10247000844208D101218020FFF7B5FC0021802093
:10248000FFF7B1FC31E0BB48844208D1012180153F
:10249000FFF7A9FC0021A015FFF7A5FC25E0B64831
:1024A000844209D101210804FFF790FC00214FF478
:1024B0008030FFF78BFC18E0B048844209D101213D
:1024C0004804FFF783FC00214FF40030FFF77EFC47
:1024D0000BE0AB48844208D101218804FFF776FC69
:1024E00000214FF48020FFF771FC10BD002202880C
:1024F000944B98420ED0994B98420BD0B0F1804F3C
:1025000008D0914B984205D0904B984202D0904B06
:10251000984204D14FF68F731A404B881A438D4B63
:10252000984207D08C4B984204D04FF6FF431A4094
:10253000CB881A4302808B8883850B880385814B67
:1025400098420BD0854B984208D08B4B984205D0CF
:102550008A4B984202D08A4B984201D10B7A03866B
:1025600001238382704770B5002400220023058C6C
:102570004FF6FE7635400584028C8388048B4FF637
:102580008F752C40B51E2C400D882C43751E2A409B
:102590000D892A434D882A436A4DA8420BD06F4DBE
:1025A000A84208D0744DA84205D0744DA84202D06C
:1025B000734DA84213D14FF6F7752A404D892A432F
:1025C0004FF6FB752A408D882A434FF6FF652B4056
:1025D0004FF6FF552B408D892B43CD892B438380AC
:1025E0000483CD888586028470BD70B500240022E6
:1025F0000023058C4FF6EF7635400584028C8388E6
:10260000048B48F6FF752C404FF6FF452C400D8893
:102610004FF6FF7606EA05252C434FF6DF752A4074
:102620000D8906EA05152A434D8806EA05152A4351
:10263000444DA84202D0494DA8421DD14FF67F75A6
:102640002A404D894FF6FF7606EA05152A434FF6D4
:10265000BF752A408D8806EA05152A434FF6FF35D7
:102660002B404FF2FF752B408D8906EA85052B43E1
:10267000CD8906EA85052B4383800483CD880587B1
:10268000028470BD70B5002400220023058C4FF633
:10269000FF6635400584028C8388848B4FF68F75E6
:1026A0002C404FF6FC752C400D882C434FF6FF55FF
:1026B0002A400D894FF6FF7606EA05252A434D8804
:1026C00006EA05252A431F4DA84202D0234DA84201
:1026D0001DD14FF2FF752A404D894FF6FF7606EA6D
:1026E00005252A434FF6FF352A408D8806EA052541
:1026F0002A434EF6FF752B404DF6FF752B408D8912
:1027000006EA05152B43CD8906EA05152B43838080
:102710008483CD888587028470BD70B50022002334
:102720000024058C4EF6FF7635400584038C8488A2
:10273000828B48F6FF752A404FF6FF452A400D88E8
:1027400020E00000002C0140000400400008004090
:10275000000C004000100040001400400034014014
:10276000004C01400050014000540140001800405E
:10277000001C004000200040004001400044014097
:10278000004801404FF6FF7606EA05252A434DF63C
:10279000FF752B400D8906EA05352B434D8806EA67
:1027A00005352B43FA4DA84202D0FA4DA84208D174
:1027B0004BF6FF752C408D894FF6FF7606EA85159E
:1027C0002C4384808283CD88A0F84050038470BD60
:1027D000828B4FF2FF331A408283828B4FF6FF7356
:1027E00003EA01231A4382837047F0B50C4615466D
:1027F000002200210026078C4EF6FF7C07EA0C071A
:102800000784828B018C4FF6FF7707EA043640F687
:10281000FF473A404FF6FF7707EA05273A434FF65E
:10282000FF7707EA03373A43D94FB8420ED0D94F62
:10283000B8420BD0B0F1804F08D0D74FB84205D086
:10284000D64FB84202D0D64FB84206D14DF6FF77E8
:10285000394046F48057394305E047F6FF57394081
:1028600044F48057394382830184F0BD828B4FF654
:10287000F3731A408283828B0A4382837047F0B5D8
:102880000C461546002200210026078C4FF6FF6CEF
:1028900007EA0C070784828B018C4FF6FF7707EA63
:1028A00004264FF60C773A404FF6FF7707EA0317F6
:1028B0002F433A43B64FB8420ED0B64FB8420BD072
:1028C000B0F1804F08D0B44FB84205D0B34FB842F2
:1028D00002D0B34FB84206D14FF6FF57394046F405
:1028E0008077394305E04FF2FF57394044F4807751
:1028F000394382830184F0BD028B4FF2FF331A40CB
:102900000283028B4FF6FF7303EA01231A4302830B
:102910007047F0B50C461546002200210026078CB2
:102920004FF6EF7C07EA0C070784028B018C4FF609
:10293000FF7707EA041640F6FF473A404FF6FF7765
:1029400007EA03373A434FF6FF7707EA05273A438A
:102950008F4FB8420ED08F4FB8420BD0B0F1804F9E
:1029600008D08D4FB84205D08C4FB84202D08C4F62
:10297000B84206D14FF6DF77394046F010073943A9
:1029800005E04FF65F77394044F010073943028382
:102990000184F0BD028B4FF6F3731A400283028B61
:1029A0000A4302837047F0B50C4615460022002109
:1029B000068C4FF6FE773E400684028B018C4FF664
:1029C0000C7632407E1C06EA03162E433243704ECC
:1029D000B0420ED06F4EB0420BD0B0F1804F08D055
:1029E0006D4EB04205D06D4EB04202D06C4EB0423A
:1029F00006D14FF6FD76314044F00106314305E043
:102A00004FF6F576314044F00106314302830184EC
:102A1000F0BD70B505460C465D4885420ED05D4858
:102A200085420BD0B5F1804F08D05B48854205D078
:102A30005A48854202D05A48854200D100E000BF82
:102A4000208850B92389A28861882846FFF7ABFF08
:102A5000E1882846FFF79EFF25E0208804280AD158
:102A60002389A28861882846FFF753FFE18828461A
:102A7000FFF742FF17E0208808280AD12389A2889F
:102A800061882846FFF7FBFEE1882846FFF7EEFE47
:102A900009E02389A28861882846FFF7A6FEE1881D
:102AA0002846FFF795FE70BD2DE9F04105460C461E
:102AB00000260127608808B9022600E00026A088C9
:102AC000012801D1022700E001272088A0B923892D
:102AD000A28861882846FFF766FFE1882846FFF74D
:102AE00059FF23893A4631462846FFF712FFE1880D
:102AF0002846FFF701FF13E02389A2886188284652
:102B0000FFF707FFE1882846FFF7F6FE23893A46DC
:102B100031462846FFF747FFE1882846FFF73AFF8E
:102B2000BDE8F0810A884B881A438B881A43CB880A
:102B30001A430B891A434B891A438B891A43A0F80D
:102B4000442070474FF6FF71818000210180C180D1
:102B50004180017270470021018041808180C180E5
:102B6000018141818181C1817047002101804180C3
:102B7000012181800021C1800181704700210180F5
:102B800041808180C1800181418181817047000045
:102B9000002C0140003401400004004000080040C7
:102BA000000C004021B1028842F00102028004E0E2
:102BB00002884FF6FE731A400280704731B1B0F8B8
:102BC000442042F40042A0F8442005E0B0F844203C
:102BD000C2F30E02A0F8442070471AB183890B4358
:102BE000838102E083898B438381704781827047B0
:102BF00041EA0203A0F8483070471AB183890B43B9
:102C0000838102E083898B438381704701894FF67A
:102C1000F8721140018170470A46002101894FF680
:102C20008F73194011430181704730B504460D463A
:102C300029462046FFF7F0FF208940F00700208159
:102C400030BD2DE9F04104460D4616461F46602D65
:102C500006D13B46012231462046FFF75AFE05E0E9
:102C60003B46012231462046FFF79DFE294620467D
:102C7000FFF7D2FF208940F007002081BDE8F081F6
:102C800030B50C4600210189C9B24FF6FF7505EA3F
:102C90000325154325432943018130BD2DE9F0412A
:102CA00005460E4617469846002443463A463146A6
:102CB0002846FFF7E5FF2C894FF6F870044044F0F2
:102CC00007044FF68F70044044F070042C81BDE877
:102CD000F081F0B504460D4616461F463B46324687
:102CE00029462046FFF7CCFF208940F48040208110
:102CF000F0BD0185828270470A46002101884FF6A7
:102D00008F731940114301807047F0B50C4615468A
:102D10001E460021002200230189028B038C4FF6FE
:102D2000F877394021434FF6FC473A4040F201170B
:102D30003A434FF6DD773B404FF6FF7707EA061739
:102D40002F433B43018102830384F0BD0A460021E7
:102D5000018B4FF68F7319401143018370470A4668
:102D60000021018B48F6FF7319404FF6FF7303EA09
:102D700002231943018370470A460021818B4FF6D5
:102D80008F7319401143818370470A460021818B5C
:102D900048F6FF7319404FF6FF7303EA0223194305
:102DA0008183704721B1028842F08002028004E0F2
:102DB00002884FF67F731A400280704721B18288E3
:102DC00042F00402828004E082884FF6FB731A40CE
:102DD0008280704721B1828842F00802828004E03C
:102DE00082884FF6F7731A408280704721B182883B
:102DF00042F00102828004E082884FF6FE731A409E
:102E0000828070470A460021018B4FF6F773194004
:102E10001143018370470A460021018B4FF2FF7373
:102E200019404FF6FF7303EA0223194301837047E9
:102E30000A460021818B4FF6F773194011438183B5
:102E400070470A460021818B4FF2FF7319404FF6FD
:102E5000FF7303EA02231943818370470A46002166
:102E6000018B4FF6FB7319401143018370470A46EB
:102E70000021018B4FF6FF3319404FF6FF7303EA31
:102E800002231943018370470A460021818B4FF6C4
:102E9000FB7319401143818370470A460021818BDF
:102EA0004FF6FF3319404FF6FF7303EA022319432D
:102EB000818370470A460021018B4FF67F731940CA
:102EC0001143018370470A460021018BC1F30E01B3
:102ED0004FF6FF7303EA02231943018370470A4642
:102EE0000021818B4FF67F73194011438183704716
:102EF0000A460021818BC1F30E014FF6FF7303EAEE
:102F000002231943818370470A460021018C4FF642
:102F1000FD7319401143018470470A460021018C5A
:102F20004FF6F77319401143018470470A46002198
:102F3000018C4FF6DF7319404FF6FF7303EA02135B
:102F40001943018470470A460021018C4FF67F73B4
:102F500019404FF6FF7303EA0213194301847047C7
:102F60000A460021018C4FF6FF5319404FF6FF73BC
:102F700003EA02231943018470470A460021018CA9
:102F80004FF2FF7319404FF6FF7303EA0223194310
:102F9000018470470A460021018C4DF6FF731940E9
:102FA0004FF6FF7303EA023319430184704730B5CB
:102FB000002301248C40A3B2048C9C430484048C21
:102FC00002FA01F5ADB22C43048430BD30B50023C4
:102FD00004248C40A3B2048C9C430484048C02FA25
:102FE00001F5ADB22C43048430BD70B5034600201A
:102FF00000241846183001258D40ACB21D8CA54325
:103000001D8409B1082909D100EB6100056825F08C
:10301000700505600568154305600EE00D1FC5F3DA
:103020004E052844056825F4E045056005684FF61F
:10303000FF7606EA02263543056070BD21B102889D
:1030400042F00202028004E002884FF6FD731A404B
:103050000280704721B1028842F00402028004E03D
:1030600002884FF6FB731A400280704721B18288B4
:1030700042F08002828004E082884FF67F731A401B
:103080008280704702884FF6F7731A4002800288E8
:103090000A430280704782884FF68F731A408280FD
:1030A00082880A438280704702894FF6F8731A407B
:1030B000028102890A430281704702894FF67F73B9
:1030C0001A40028102890A43028170478184704755
:1030D0008185704781867047018770478187704777
:1030E000A0F84010704702884FF6FF431A40028054
:1030F00002880A43028070470146888E7047014665
:10310000088F70470146888F70470146B1F840002C
:1031100070470146888C70470146088D704702460B
:103120000020138A0B400BB1012000E00020704703
:10313000CA430282704730B50246002000230024B3
:10314000158A05EA0103958905EA010413B10CB15A
:10315000012000E0002030BDCA4302827047704762
:103160000FB41CB5074B06AA7B446946009005982E
:1031700000F06FFB0020694600F07EFB1CBC5DF890
:1031800014FB00000D07000070B504468569006857
:10319000C10601D5302600E02026C00707D070BD4B
:1031A000D4E9012130469047206A401C20626D1E00
:1031B000F6D570BD70B5044685690078C00707D1A3
:1031C00070BDD4E9012120209047206A401C206274
:1031D0006D1EF6D570BD00002DE9F04106460024B5
:1031E00010687529314616A510D0AFF3008000286D
:1031F00002DA404213A507E031688A0701D512A51B
:1032000002E0490704D511A5012401E0AFF30080D5
:1032100000210A2206F1240709E0B0FBF2FCB0FB12
:10322000F2F302FB1C00303078541846491C002889
:10323000F3D123462A463046BDE8F04100F09EB85F
:10324000000000002D0000002B0000002000000006
:103250002DE9F0474FF0000A89460446C0F820A047
:103260002046E1688847002876D0252806D0D4E992
:1032700001219047206A401C2062F1E7E168204666
:1032800000258847C4F81CA006460027C4F818A0EB
:103290002A2E09D0304601F051FB38B304EB8708E1
:1032A000303EC8F8186019E059F8041B204604EBBA
:1032B00087029161E1688847012F064618D1E069CD
:1032C000002820DA25F020051DE0D8F8180000EBD2
:1032D000800006EB40003038C8F818002046E1684E
:1032E0008847064601F02AFB0028EED1012F0AD0BC
:1032F0002E2E08D12046E16888477F1C0646022F03
:1033000045F02005C4DBA069002803DA404245F0FF
:103310000105A061E80701D025F01005B6B1A6F1BE
:103320004100192802D8203645F400654A46314646
:10333000204625604D46FCF755FF58B1012806D0C0
:10334000ED1D25F0070000F1080989E704E005F10B
:10335000040985E730468AE7206ABDE8F0877047B0
:1033600070477047704710B500F090FA006810BDC4
:1033700010B5044600F08AFA046010BD2DE9F0474C
:103380000D4699469246044600F1240801688806D5
:1033900004D5E06921F01001216000E00120A8427D
:1033A00001DD471B00E00027A1697A1902EB090043
:1033B000081AA0612078C00602D42046FFF7E4FE78
:1033C000002608E0D4E901211AF806009047206A97
:1033D000401C761C20624E45F4DB2078C0060AD5DE
:1033E0002046FFF7D1FE06E0D4E9012130209047C6
:1033F000206A401C2062381EA7F10107F4DC07E0B8
:10340000D4E9012118F805009047206A401C206289
:10341000281EA5F10105F3DC2046FFF7CBFE20783E
:10342000000602D50220BDE8F0870120FBE77047C7
:103430002DE9FF4F0C461E464FF0FF378BB0D2E907
:103440000001DDF860800A908A46C1F30A5505B98B
:103450003D46002108464FF00000BAF1000F00F48D
:10346000400005DA00EB80004FF4400101EA500013
:103470004FEA9059B9F1010F00DDB9460A9850EAB8
:103480004A000ED044F61050A5F2FF3545432F14E4
:10349000B8F1000F1ED07542291E1EDDC9F10002D1
:1034A0001CE0B8F1010F4FF0000001D0302103E023
:1034B000F24305E02154401CB042FBDB30460022C1
:1034C000002121540B99C1F80880C1E900200FB0F8
:1034D000BDE8F08FBD1B6D1CDEE74A4600DA69428D
:1034E00006A800F05DFA06AB93E8070003AB83E89B
:1034F000070050460A9900F031FB8DE80700A0F55F
:1035000000501F3800900398002D09DD42F21F0182
:103510004A46084403A90390684600F090FD08E07D
:10352000A0F500504A461F3803A90390684600F0F2
:103530009AFD8DE807000004000C03D04FF0FF3027
:10354000410800E01046B8F1000F03D000220092BD
:1035500015461EE0751E05D400F09CF93032625508
:103560006D1EF9D5B3460122084302D000227F1C0C
:1035700004E02078302801D100227F1E002A09971C
:1035800086D01DE0112D07DA00F084F93032625543
:103590006D1C50EA0102F5D1084302D00098C8B171
:1035A0000EE00021681E05E0235C625C6354225437
:1035B000401E491C8142F7DBAB46A81B401E099008
:1035C000002004F80B000B98099AC0F80880C0E9A5
:1035D000002B7CE711264FF0000859E72DE9F04F4A
:1035E00088460446D21D22F0070191B0D1E90001BE
:1035F000CDE90A0100F06DFE02460B98C00F01D024
:103600002D2007E02068810701D52B2002E0202132
:1036100001EAC000032A099001D0072A05DB03460E
:103620004146204600F07CF90BE12078800601D568
:10363000E06900E00620B8F1650F814606D0B8F1D8
:10364000660F18D0B8F1670F70D131E00020B9F1E2
:10365000110F009001DB112301E009F101030AAA17
:1036600001A90CA8FFF7E4FEDDE90C70002609F1C2
:103670000105834647E001204B4600904FF000478C
:103680000AAA01A90CA8FFF7D3FEDDE90DB00C9939
:103690005D46002610B909F101000D18B9EB0500CF
:1036A00003D4C0F1FF3609F10105A5EB09002BE0B9
:1036B000B9F1010F01DA4FF001090020B9F1110F42
:1036C0000090484601DD112300E003460AAA01A943
:1036D0000CA8FFF7ADFEDDE90C704D4600268346D1
:1036E000207800070AD4AB4500DA5D4601A8012D19
:1036F00004DD411911F8011C302907D04F4502DAC9
:1037000017F1040F04DA012082460FE06D1EEEE788
:10371000002F02DCED1B3E4403E0781CA84200DDD4
:103720007D1CB81B00F1010A4FF00047207800070C
:1037300003D4AA4501DB4FF0FF3A0021B7F1004F57
:103740000DF143088DF8431024D002202B23002FC5
:1037500001DA7F422D230A21021EA0F1010000DCC4
:103760005FB197FBF1FC97FBF1F201FB1C7C174664
:103770000CF1300C08F801CDEEE7A8F10100037060
:103780002188090501D5452100E06521A0F1010846
:1037900000F8011C09980FA9A1EB0807FF1D00B153
:1037A0000120411901EBEA70A1693844081A401E52
:1037B000A0612078C00602D42046FFF7E5FC0998F6
:1037C00028B1D4E901219047206A401C206220786A
:1037D000C00622D52046FFF7D7FC1EE0002E04DBF2
:1037E000B34502DD01A8805D00E03020D4E901216D
:1037F0009047206A401C2062761CAAF101005FEA13
:10380000000A0AD100F03EF8C0680168405CD4E9C3
:1038100001219047206A401C2062281EA5F1010565
:10382000DCDC07E0D4E9012118F8010B9047206A9D
:10383000401C2062381EA7F10107F3DC2046FFF789
:10384000B9FC032011B043E601694A1C0261087803
:10385000704700B58FB0CDE90131002105910549D0
:103860007944CDE9031011466846FFF7F1FC0FB02B
:1038700000BD0000E5FFFFFF0A6802F8010B0A60C7
:10388000704700000048704700040020004870475F
:10389000E003002030B5B0F10A024FEA900E71F15A
:1038A00000034EEA817EB0EB0E0061EB91014FEA1E
:1038B000101E4EEA017E10EB0E0041EB11114FEA93
:1038C000102E4EEA016E10EB0E0041EB11214FEA73
:1038D000104E4EEA014E10EB0E0041EB1141401824
:1038E00041F100014FEAD00040EA41704FEAD101B6
:1038F00010EB80054FEA810444EA907444EB010424
:103900006D1944EB0404521BA3414FF0000348BF60
:103910000A3200D530BD401C41F1000130BD00002D
:103920002DE9F0411F46044603260168072A01F4E9
:10393000006004DB08B116A505E016A503E008B198
:1039400015A500E015A521F010002060A069C01E9B
:10395000A0610FB1401EA0612046FFF715FC4FB1DA
:10396000D4E9012138469047206A401C2062C01CDF
:10397000206206E0206AFAE7D4E9012115F8010B7C
:103980009047761EF8D22046FFF714FCBDE8F08180
:103990004E414E006E616E00494E4600696E6600F3
:1039A0002DE9F047814616468AB0334878440DC861
:1039B0008DE80D0030487844801C03AC0DC884E8C5
:1039C0000D0041F69B300844372190FBF1F290FB4B
:1039D000F1F5A5F1800501FB12041B3C02D5644200
:1039E000012000E00020DFF890A080460027FA4484
:1039F000AAF1BE0A0DE0E00709D03246684607EB9F
:103A000047010AEB810100F02EFB8DE807006410EE
:103A10007F1C002CEFD1184F7F44AC3F18E0E80723
:103A200014D007EB04100DF1180A90E80E008AE894
:103A30000E00C068F04201D198190890324606A9DC
:103A400003A800F010FB03AB83E807006D10641CB3
:103A5000002DE4D132466946B8F1000F03A802D028
:103A600000F0EDFA01E000F0FEFAC9E90001C9F842
:103A700008200AB0BDE8F0876C2B000000487047B2
:103A8000E00300207546FFF7F9FFAE4605006946E2
:103A9000534620F00700854618B020B5FDF74EFECE
:103AA000BDE820404FF000064FF000074FF000083F
:103AB0004FF0000B21F00701AC46ACE8C009ACE8C0
:103AC000C009ACE8C009ACE8C0098D46704704469F
:103AD000AFF300802046FCF7A2FB00004FF0013C52
:103AE00050F8042B51F8043B9A4221D1A2EB0C036D
:103AF000934313EACC1317D150F8042B51F8043B2D
:103B00009A4215D1A2EB0C03934313EACC130BD1C9
:103B100050F8042B51F8043B9A4209D1A2EB0C0354
:103B2000934313EACC13DBD04FF00000704700BF83
:103B3000D01A01BAB1FA81F101F0180122FA01F0AC
:103B4000CB40C1F12001DBB2C0B2C01A2CFA01F3A4
:103B5000D11A914311EAC311E6D170475FEA400CD4
:103B600008BF91F0000F4FEA8C234FEAC12243EACD
:103B700051514FEA1C5018BF00F5F0404FEA300099
:103B800018BF41F000415FEA6C5C00F02980BCF195
:103B9000FF3F08BF40F080407047130C06BF12047F
:103BA0004FF0100C4FF0000C130E04BF12020CF17A
:103BB000080C130F04BF12010CF1040C930F04BF87
:103BC00092000CF1020CD30F04BF52000CF1010C57
:103BD00011464FF00002A0F11F00A0EB0C0070474F
:103BE00011F0004F08BF704731F000413FF4D5AFEE
:103BF0000B0C06BF09044FF0100C4FF0000C0B0E1D
:103C000004BF09020CF1080C0B0F04BF09010CF1F1
:103C1000040C8B0F04BF89000CF1020CCB0F04BF06
:103C200049000CF1010CCCF12003A0EB0C0022FAAE
:103C300003F302FA0CF241EA030100F101007047BC
:103C400020F07F4C80EA030023F07F47ACEB0703B2
:103C500003F57C5300F0004003F1FF032DE9804998
:103C60004FEA154B09B44FEA144325EA0B4E24EAF8
:103C700003480FF2042606EB132749083E785FEA53
:103C8000320203FB0667C7F5000707FB06F64FEA9B
:103C900054374FEAD64606F1020607FB066CCCF114
:103CA000005C4FEA1C472CEA074C07FB06F40CFBB0
:103CB00006F504EB15464FEA961634BF00204FF088
:103CC00000404FEAD13706FB07FC4FEA1C4C0CFBC7
:103CD0000BF7D21B03FB0CF761EB07010CFB0EF794
:103CE000B0EB074072EB17420CFB08F734BFA2EBB6
:103CF0000742B2EB074261EB17414FEA0C444FEA2F
:103D0000910706FB07FC4FEA1C4C0CFB0BF7B0EBD2
:103D1000C74072EB573203FB0CF734BFA2EBC7422C
:103D2000B2EBC74261EB57310CFB0EF7B0EBC700AB
:103D300072EB57720CFB08F734BFA2EBC702B2EB71
:103D4000C70261EB5771039F4FEA816141EA92110B
:103D500004EBCC044FEAD1374FEA826206FB07FC42
:103D600042EA90124FEA80604FEA1C4C0CFB0BF7C2
:103D7000D21B03FB0CF761EB07010CFB0EF7B0EB5A
:103D8000074072EB17420CFB08F734BFA2EB074267
:103D9000B2EB074261EB17414FEA8C554FEA9107AE
:103DA00004EB9C2406FB07FC4FEA1C4C0CFB0BF7B6
:103DB000B0EBC74072EB573203FB0CF734BFA2EBFA
:103DC000C742B2EBC74261EB57310CFB0EF7B0EBC9
:103DD000C70072EB57720CFB08F734BFA2EBC702A7
:103DE000B2EBC70261EB577115EB4C254FEA8161CD
:103DF00041EA92114FEA82624FEAD13742EA9012C9
:103E000006FB07FC44F100044FEA80604FEA1C4CBB
:103E10000CFB0BF7D21B03FB0CF761EB07010CFB50
:103E20000EF7B0EB074072EB17420CFB08F734BFFC
:103E3000A2EB0742B2EB074261EB174115EB1C15F1
:103E40004FEA813141EA92414FEA823242EA90429E
:103E50004FEA80304FEA0C7644F1000448EA03430D
:103E60004EEA0B484FF0000EB2EB080C71EB030763
:103E700024BF624639464EEB0E0E4FF0000B001881
:103E8000524149414BEB0B0BB2EB080C71EB0307B2
:103E90007BF1000B24BF624639464EEB0E0E4FF00D
:103EA000000B0018524149414BEB0B0BB2EB080CD5
:103EB00071EB03077BF1000B24BF624639464EEBE2
:103EC0000E0E51EA020718BF46F0010616EB0E76F9
:103ED00055F1000254F1000103D5BDE88901BDE8A8
:103EE0000088BDE88901BDE80048B619524141EBA0
:103EF0000101A3F10103704780807F7E7D7C7B7A86
:103F00007978777676757473727171706F6E6E6D85
:103F10006C6C6B6A6A69686867666665646463632B
:103F200062616160605F5F5E5E5D5D5C5C5B5B5AB1
:103F30005A5959585857575656555555545453531E
:103F400052525251515050504F4F4F4E4E4D4D4D79
:103F50004C4C4C4B4B4B4A4A4A49494948484847C4
:103F60004747474646464545454444444443434302
:103F70004342424242414141002B26D4770021D0A6
:103F80001CB54FEA370703B44FF010004FF0100193
:103F90004FF000000FBCBDE810400BF1010BBBF16E
:103FA000010F08BF5FEA170722BF12F1010211F1EA
:103FB00001014FF0004143F1000300F0004043EAEB
:103FC00000007047F9D35708DAE746EA064613F1CE
:103FD000400F4FEA16461FDD13F1200FDFBF1643D7
:103FE0000A46002120335B42C8D0C3F1200746EACD
:103FF000064602FA07F74FEA164646EA0706C3F1F5
:10400000200722FA03F201FA07F721FA03F14FF031
:10401000000342EA0702B1E746EA020646EA06461C
:104020004FEA164646EA0106BCBF46EA0646360C8B
:104030004FF000034FF000024FF000019EE72DE922
:10404000C048934630B491E8380007C831EA400CC4
:1040500048BF34EA430C03D5FFF7F2FDFFF78CFFAE
:10406000F0BCBDE800882DE9C048934630B491E823
:10407000380007C810F0804F08BF13F0804F03D1FD
:1040800000F005F8FFF778FFF0BCBDE8008820F0ED
:104090007F4780EA030023F07F4C07EB0C03A3F576
:1040A0007C5300F00040A3F1FE0392F0000F00F0FB
:1040B000B38095F0000F00F077802DE901494FEAB9
:1040C00011404FEA144621EA004800FB06FC24EAAE
:1040D000064708FB06F607FB08F800FB07F718EB96
:1040E00006484CEB164C4FEA124B18EB07484FEAC8
:1040F00015464CEB174022EA0B4E0BFB06FC25EA5B
:1041000006470EFB06F607FB0EFE0BFB07F71EEB42
:10411000064E4CEB164C4FF000061EEB074E4CEBD8
:10412000174B18EB0B0840F1000018EB0E0B58EB87
:10413000000840F100008F1A4FF000013CBFC94356
:10414000661B14BFB5EB040C00213CBFC943F61B32
:104150004FEA17444EEA8E0E27EA04454FEA1C4701
:1041600004FB07622CEA074C05FB07F70CFB05F67E
:1041700004FB0CFC16EB074642EB174216EB0C4611
:1041800042EB1C421BEB060658EB0202414146EA99
:104190009E0601D5BDE80189B619524141EB0101E6
:1041A000A3F10103BDE801894FEA14454FEA114725
:1041B00024EA054621EA074C05FB07F406FB07F74E
:1041C0000CFB06F105FB0CFC11EB074144EB17441B
:1041D0004FEA124711EB0C4144EB1C4422EA074C16
:1041E00005FB07F206FB07F70CFB06F605FB0CFCCC
:1041F00016EB074642EB174216EB0C4642EB1C450A
:104200006A1854F1000148BF7047B619524141EB9A
:104210000101A3F10103704795F0000F37D04FEA79
:1042200011424FEA144721EA024624EA074C02FBF6
:1042300007F106FB07F70CFB06F402FB0CFC14EB82
:10424000074441EB17414FEA154714EB0C4441EB8F
:104250001C4125EA074C02FB07F506FB07F70CFBA0
:1042600006F602FB0CFC16EB074645EB174516EB72
:104270000C4645EB1C42121951F1000148BF704732
:10428000B619524141EB0101A3F1010370474FEA16
:1042900014454FEA114724EA054621EA074C05FB7D
:1042A00007F106FB07F70CFB06F24FF0000605FBD3
:1042B0000CFC12EB074241EB174112EB0C4251EBA5
:1042C0001C4148BF7047921841EB0101A3F1010363
:1042D0007047490050EAC12018BF04204A0D18BF9A
:1042E00040F0010040F2FF72B2EB515F08BF40F0B6
:1042F0000200012808BF0520704700002DE9F74F94
:10430000144694B00021C4E902111599079121F0D7
:104310000045C9498D4206DC1599C4E9000117B072
:104320000020BDE8F08FC549DFF814A3A9423CDDA9
:104330000799C44E0029C44FC44A1599534619DD44
:1043400000F056FF554506D0C14AC24B00F050FF61
:10435000C4E900010AE04FF0D352BE4B00F048FF21
:1043600032463B4600F044FFC4E9000117B001208B
:10437000BDE8F08F00F0D0FB554506D0B44AB54BF0
:1043800000F0CAFBC4E900010AE04FF0D352B14B80
:1043900000F0C2FB32463B4600F0BEFBC4E9000120
:1043A00017B04FF0FF30BDE8F08FAB49A942159927
:1043B00078DB21F0004183468846A84AA84B00F0EC
:1043C0000DFE0022A74B00F0A7FB00F0ADFD099009
:1043D00000F0D9FD06460F469C4A534600F0FEFD0C
:1043E00043465A4600F0F8FE80468A46984A994B62
:1043F0003046394600F0F2FD2A0D01250B92424667
:10440000534600F0E9FE032DC4E9000139D00B98B2
:10441000C1F30A51401A05EB45111139814230DAD6
:104420009148C346784400EB0510CDF80CA00C90E1
:10443000D0E900233046394600F0D0FD02460B4655
:10444000049106905846039900F0D2FE80468A46B1
:1044500002460B465846039900F0CAFE049B069A92
:1044600000F0C6FE83460C9803913946D0E902233A
:10447000304600F0B3FD5A46039B00F0B9FE6D1CB8
:10448000BDE707980028A2BF099817B0BDE8F08FD4
:10449000616881F000416160099817B04042BDE851
:1044A000F08FFFE784461598C1F31301C0F30A505B
:1044B000A0F2F5304FEA601800F01F06C6F12000A8
:1044C000139000200690079041F4801E05206D4651
:1044D00076B1664A08EB00017A4452F8213002EBCB
:1044E0008101B3404A68139922FA01F1194305E0AA
:1044F0005F4908EB0002794451F82210A1FB0E2716
:10450000A1FB0C131A449A4234BF0123002303EB8E
:10451000070A05EB8003D3E901B70F448F4234BF8C
:104520000121002193448B4411B1934502D903E04A
:10453000934501D2012100E00021C3E901B75144B4
:1045400045F82010011EA0F10100C1DC0298059F72
:1045500000F10050800F12900298DDE903568000B0
:1045600000F011FD834628460D9100F023FD6FF009
:104570001D0201F0B0FACDE90E01304600F01AFD3F
:104580006FF03D0201F0A7FA80468A46384600F0F7
:1045900011FD6FF05D0201F09EFA07464246534658
:1045A000119100F0B9FADDE90E2300F0B5FA5A4690
:1045B0000D9B00F0B1FA00250E465A4628460D9B89
:1045C00000F016FEDDE90E2300F012FE42465346CF
:1045D00000F00EFE3A46119B00F0FEFDDFF898A0B9
:1045E000244A534600F0FAFC07468846234A244BE7
:1045F0003146284600F0F2FC3A46434600F08CFA79
:10460000074688464FF0A84253463146284600F0F8
:10461000E5FC3A46434600F07FFA159A12F0004F47
:1046200004D0129A81F0004152421292C4E9000172
:10463000129817B0BDE8F08FFB21E93F7CD902400A
:10464000FB21F93F7370032E8A19A33B00004054ED
:104650003163621A61B4D03DFB21394183C8C96D11
:10466000305FE43F0000E03F881F0000041F0000AF
:10467000E61E0000182D4454FB21F93D3326A611F7
:10468000460B113C2DE9FF4D21F0004807460C4632
:10469000B8F1795F08DA00F047FC002801BF00207C
:1046A000324904B0BDE8F08D3A462346104619461B
:1046B00000F094FC054602462D480E460B460621A6
:1046C000784400F05DF82A46334600F087FCDDE9C7
:1046D000022382468B463846214600F07FFC044682
:1046E0000F4652465B462846314600F077FC22468C
:1046F0003B4600F07DFD07468A464FF0FF322846D4
:10470000314601F0E8F91B4A90450ADA3A46534629
:1047100000F06EFD04B00022BDE8F04D134B00F038
:104720005BBD154A4245A8BFA8F500154FF000042F
:10473000B8BF124D22462B4600F05AFD0646884669
:1047400022462B460020094900F052FD04460D4642
:104750003A4653463046414600F04AFD04B02246F0
:104760002B46BDE8F04D00F037BD00000000F03FE3
:10477000BC1C00003333D33F0000E93F0000D23FB0
:104780002DE9F0414F1E00EBC7010446D1E90001BD
:1047900015461E4637F006020DD02A46334600F075
:1047A0001DFC7F1E04EBC703D3E9002300F0B4F91E
:1047B00037F00602F1D1022F25D0042F13D0062F97
:1047C00018BFBDE8F0812A46334600F007FCD4E963
:1047D0000A2300F0A1F92A46334600F0FFFBD4E992
:1047E000082300F099F92A46334600F0F7FBD4E994
:1047F000062300F091F92A46334600F0EFFBD4E996
:10480000042300F089F92A46334600F0E7FBD4E997
:10481000022300F081F92A46334600F0DFFBD4E999
:104820000023BDE8F04100F077B900002DE9FF4D0D
:10483000054621F0004084B00C46B0F1795F0BDAF8
:104840002846FFF746FD042808BF00F06FF8284609
:1048500008B02146BDE8F08D2A460B46104600F010
:10486000BDFB06460F462A46234600F0B7FB8046AE
:1048700026488A4632463B4605217844FFF780FFAA
:1048800083461098029160B3214A224B404651461C
:1048900000F0A4FBCDE900015A4640465146029B78
:1048A00000F09CFB82468846DDE906014FF0FF32AE
:1048B00001F011F95246434600F09AFC32463B465D
:1048C00000F08CFBDDE9062300F092FCDDE900231B
:1048D00000F08EFC08B02A462346BDE8F04D00F0FB
:1048E0007BBC0B465A463046394600F077FB084AF7
:1048F000084B00F011F94246534600F06FFB08B038
:104900002A462346BDE8F04D00F006B9FA1B000028
:10491000495555555555C5BF012201F0DCB8002257
:1049200013461046114600F0A7B90000024A0020C5
:10493000110701F0D0B8000001FDFFFF30380A2850
:1049400001D20120704700207047000000B5244BC1
:1049500021F0004287B09A42DCBF0022134629DDD5
:10496000204B9A4208D140B94FF00100FEF700FDFC
:10497000FFF7D5FF07B000BD03DBFFF7CDFF07B0A2
:1049800000BD02AAFFF7BAFC10F0030104BF0DF14D
:10499000080C9CE80F000DD0012001290ED002293F
:1049A00014D00DF1080C00909CE80F00FFF73EFFBB
:1049B00007B000BDFFF766FE07B000BD0DF1080CA3
:1049C00000909CE80F00FFF731FF05E00DF1080CA7
:1049D0009CE80F00FFF756FE07B081F0004100BDD4
:1049E000FB21E93F0000F07F00B5254B21F000429C
:1049F00087B09A4203DC0022134600922BE0214B41
:104A00009A4208D140B94FF00100FEF7B1FCFFF720
:104A100086FF07B000BD03DBFFF77EFF07B000BDD8
:104A200002AAFFF76BFC10F003014FF001000DD05C
:104A3000012914D002291AD00DF1080C9CE80F00AE
:104A4000FFF720FE07B081F0004100BD0DF1080C1A
:104A500000909CE80F00FFF7E9FE07B000BD0DF1E4
:104A6000080C9CE80F00FFF70DFE07B000BD0DF12C
:104A7000080C00909CE80F00FFF7D8FEE2E700006A
:104A8000FB21E93F0000F07F10B500290AD008782B
:104A9000002807D005487844FFF720F8002801D007
:104AA000002010BD0248784410BD0000BE1A00006E
:104AB000B61A000021F00042A2F16052B2F5801F48
:104AC00001F0004328BFD2F17F6C0BD95FEA001CD4
:104AD00043EAC20242EB507018BF704728BF20F073
:104AE00001007047B2F5801FBCBF184670474FEAFF
:104AF000410C1CF5001F02D2084600F002BF70B541
:104B000000F016FB00000089FFF7F6BF4FF00040F1
:104B1000A0F580007047000010B591EA030F48BF70
:104B200083F0004300F16C83841A71EB030C05D20F
:104B3000121943EB0C03001B61EB0C01DFF824E1BD
:104B40004FEA1154A4EB135C1EEA430F18BF9EEA10
:104B5000445F73D023EA0E03DCF1200E21EA0451F6
:104B600043F4801332D322FA0CFE10EB0E0023FA2A
:104B70000CFE41EB0E01CCF1200E03FA0EFE10EB01
:104B80000E0051F10001B1F5801FCCF1200E32D2A0
:104B900001EB045112FA0EF2BDE8104058BF704705
:104BA000401C38BF5FEA420218BF7047002814BF9C
:104BB00020F0010041F100014FEA410313F5001F0D
:104BC00038BF7047A1F1C04100F000BB012A43EBA0
:104BD0000302ACF1200CDCF11F0E32BF4FF0000ECF
:104BE00023FA0CF310EB030041EB0451B4EB115F1B
:104BF000D0D0A1EB045101F5801149085FEA3000E3
:104C000001EB04510ED350F1000038BF12FA0EFE32
:104C100008D1BDE81040C9E7401C38BF5FEA420236
:104C2000CAD1C3E7BDE810404FEA410313F5001FA6
:104C300038BF7047A1F1C04100F0C8BA9EEA445F96
:104C400008D011EA5E0FBDE8104004BF01F000413A
:104C500000207047BDE8104070B500F069FA00BF51
:104C600064FBBE3E0000E0FF02494FF0000000F090
:104C700000BF00BF0000F87F2DE9C04130B4DFF86D
:104C8000A0C23CEA111418BF3CEA131400F0EC80F7
:104C900081EA03051CEA111444EAD57418BF1CEA22
:104CA000131500F0C780A4EB05044FF0004545EA5A
:104CB000C12145EAC32341EA505143EA525304F16A
:104CC0007F74994204F500344FEAC0204FEAC222B3
:104CD00008BF904200F09C804FEA13650FF2401627
:104CE000765D4FEA134506FB05F7C7F1807706FBB3
:104CF00007F74FEAD737A7FB03687642C8F5803835
:104D0000A7FB06CE38BFA8F1010807FB08E64FF065
:104D1000000EA6FB028CE6FB03CEDCF1000CCEF10C
:104D2000004E38BFAEF1010EA6FB0C584FF0000745
:104D30004FF00005E6FB0E87A1FB08C6A0FB07CEDF
:104D400016EB0E0645F10005E1FB076515F1E04E97
:104D50007EBFA4F580345FEA46066D4116F18007F8
:104D600045F100054FEA17274FEA066647EA05674F
:104D7000A6F1DE46B6F1805F4FEA15251FD9384609
:104D800024F0010C05EBC471BCF1FE6F01EB0C11BA
:104D900002D8F0BCBDE8008124425CBF01F5801E52
:104DA0009EEAC47F02D4F0BCBDE80081244238D41E
:104DB000F0BCA1F1C041BDE8004100F007BA4FEAE4
:104DC000D22242EA43524FEAD323A7FB02864FEA9C
:104DD000D02040EA415007FB03661EEA0E0F4FEA5F
:104DE000D12105FB026658BFA6EB0056B6EB005674
:104DF0004FEA520E4EEAC37E18EB0E0E56EB530EE0
:104E0000BDD518EB02085E417F1C55F10005B6E7E1
:104E10004FF480154FF000074FF000064FF00008E8
:104E2000ADE7F0BC4FF0000001F1C04101F00041DE
:104E3000BDE8008111EA0C1F0CEA131500D00CE04C
:104E400013EA0C1F00F025804FF00000F0BC81EA4F
:104E5000030101F00041BDE80081F0BCBDE8004164
:104E600081EA030100F0B2B9F0BCBDE8004170B5C1
:104E700000F05EF9097EFC3E00F007B881EA03010C
:104E80004FF0000001F00041704781EA030100F09B
:104E90009DB9F0BCBDE800414FF0000021497047CA
:104EA000FFFDFBF9F7F5F4F2F0EEEDEBE9E8E6E4EF
:104EB000E3E1E0DEDDDBDAD8D7D5D4D3D1D0CFCD76
:104EC000CCCBCAC8C7C6C5C4C2C1C0BFBEBDBCBBAF
:104ED000BAB9B8B7B6B5B4B3B2B1B0AFAEADACABAA
:104EE000AAA9A8A8A7A6A5A4A3A3A2A1A09F9F9E84
:104EF0009D9C9C9B9A999998979796959594939336
:104F0000929191908F8F8E8E8D8C8C8B8B8A8989CC
:104F1000888887878685858484838382828181804F
:104F20000000FF070000F87F4FEA41034FEA5353A8
:104F3000A3F58063D3F11E03C8BFD3F1210C0CDDB0
:104F40004FF0004242EAC12242EA505232FA03FCD8
:104F50008CEAE17CACEBE1707047102BC4BF002001
:104F6000704703F5787CBCF1FF3F04D06FF000423E
:104F700082EA2100704770B500F0DAF84992248087
:104F800000207047F2E710F0004248BF4042B0FAFC
:104F900080F310FA03F10AD0C3F11D0303F5806317
:104FA0004FEA415002EB035202EBD12170474FF020
:104FB00000007047B0FA80F310FA03F10AD0C3F191
:104FC0001D0303F580634FEA41504FEA035202EBA1
:104FD000D12170474FF0000070470000DFF848C152
:104FE00070B51CEA111E1EBF1CEA13159EEA0C0FB9
:104FF00095EA0C0F00F06F8081EA030423EA4C135A
:105000004EEAD47E21EA4C1141F4801143F480131E
:10501000AE44A1FB024CA0FB0365AEF17F7E3619C6
:1050200055EB0C05A1FB034C4CF10003A0FB021C4B
:1050300016EB0C06654153F10003094218BF46F018
:10504000010613F4007F0BD14FEA03314FEA05301C
:10505000340341EA155140EA16506FF003020AE0AA
:105060004FEAC3214FEAC520F40241EA555140EA14
:1050700056506FF0020202EB2E4201EB025585EA18
:10508000CE710AD05FEA440C18BF24F0004450F1FE
:10509000000041F1000120EAD47040F2FE7C62453C
:1050A00000D270BDA84214BF4FF080444FF040447E
:1050B000002E08BF0024BEF1806FA8BFA1F1C0413F
:1050C000BDE8704080F282804FF0000001F1C041E5
:1050D00001F0004170479EEA0C0F0CEA131518BF4F
:1050E00095EA0C0F06D04FF0000081EA030E0EF097
:1050F000004170BD00F01CF88900013E00F007B8C7
:1051000000F009B84FEA430C5FEA5C5C08D081EA22
:10511000030100F05BB84FEA410C5FEA5C5CF6D13A
:105120004FF00000014970470000FF070000F87FC2
:105130000EF1020E2EF0030E5EF8046B364205D41B
:10514000012A43EB030515F5001F12D8012841EB96
:10515000010C1CF5001F0CD80ED14FEAD17C15F5BF
:10516000001F0CEB4C0C0CF1020C08BF4CEBD37C79
:1051700004E04FF0080C01E04FEAD37C0CEB4C0547
:1051800026FA05F606F00706B6F1040C06D20EEB79
:10519000860CBDE870404CF0010C6047DFE80CF075
:1051A000090B02024FF000414FF00000A1F5002171
:1051B00070BD19461046012851EB010418BFD4F503
:1051C000001484BF002001F0004170BD0808A0F564
:1051D00000114FEA3101704791EA030F10B581F0D9
:1051E00000413FF5A1AC83F0004300F009B8000096
:1051F00010B591EA030F48BF83F000433FF594AC2C
:10520000841A71EB030C07D212198CF0004C43EB9B
:105210000C03001B61EB0C01DFF8A4E14FEA115411
:10522000A4EB135C1EEA430F18BF9EEA445F00F034
:10523000B08023EA6E03524221EA0451C3EB6E03AD
:1052400038BF5B1EDCF1200E25D322FA0CFE10EBDA
:105250000E0043FA0CFE41EB0E01CCF1200E03FAD6
:105260000EFE10EB0E0051F10001CCF1200E29D4FE
:1052700012FA0EF201EB0451BDE8104058BF70471E
:10528000401C1CBFB2F1004F704700280CBF491CE6
:1052900020F00100704712EB020E43EB030218BF2F
:1052A0004FF0010E4EEA4202ACF1200CDCF11E0E72
:1052B00054D943FA0CFE10EB0E0051F1FF31CCF142
:1052C0001E0ED5D50EF1010E12FA0EFE404141EB35
:1052D000010101EB445C5FEA5C5C10D910EBDE700D
:1052E00001EB045138BFBEF1004FBDE8104018BFBC
:1052F000704700280CBF491C20F00100704730D2D5
:105300004FEAD42C11F5001124F400641BD0B1FA3B
:1053100081F20B3AA41AA41ED2F12003914030FA74
:1053200003F31943904001EBCC71002C01EB0451C5
:10533000BDE81040A8BF704701F1C0414FF0000028
:1053400001F000417047B0FA80F310FA03F100D188
:1053500010BDE41A173C4805C90AE4E701EB045103
:1053600010BD491001EB0451BDE810404FEA300078
:1053700002E04FF0000170474A0008BF0042F8D039
:10538000B2F5001F28BF704701F000414FF0000048
:1053900070479EEA445F07D011EA5E0FBDE81040F7
:1053A00004BF002100207047BDE8104070B5FFF732
:1053B000BFFE00BF40DFF63E83F00041104670475D
:1053C0000000E0FF43004FEAD30C4FEA3C0C43409F
:1053D0001FBF40070CF1605113F0FE4F70471CF0E7
:1053E000006F03D100200CF0004170470CF0004327
:1053F00043EA507010B540EACC0000F03CFA00BF20
:10540000000000924FEA0001FFF7E0BE4FF00041BC
:105410004FF00000A1F500217047000090EA010F55
:1054200048BF81F0004100F1B482421A3CBF801AAB
:1054300089184FEAD0524FF07F4C1CEA410FA2EB83
:10544000D15318BF9CEA026F00F03B804FF0004C34
:105450004CEA00204CEA012121FA03FC10EB0C0C71
:105460001ED202F1FF325FEA1C2040EBC25038BF6F
:1054700070471CF07F0F4FEA400C18BFBCF17F4F04
:1054800038BF7047C3F12003994008BF20F00100E6
:10549000BCF17F4F38BF7047A0F1C04000F031BA77
:1054A0004FEA3C00000A40EBC25028BF1CF0FF0F3F
:1054B0004FEA400CE6D018BFBCF17F4F38BF7047B1
:1054C000EAE79CEA026F05D010EA5C0F08BF00F023
:1054D0000040704710B500F0CEF900BF64FBBE3E3F
:1054E000401058BFC0F14040491058BFC1F1404181
:1054F0008142EFF3008070474FF47F0C1CEAD0121A
:105500001EBF1CEAD11392EA0C0F93EA0C0F00F0B5
:10551000858090EA010F48BF42F4807240F4000C8D
:1055200041F400002CF07F4120F07F4000B5814223
:10553000A2EB03020FF2081CACEB504EC0F10000CE
:105540009EF800E04FEA4E0E00FB0EFC38BF49000B
:105550004FEA2C1C02F5FA020CFB0EF34FEACE1EAA
:105560004FEA112C4FEAC1210EEB635E42EB22425F
:105570000EFB0CFC4FEA1C5300FB03114FEA112CED
:105580004FEA01310EFB0CFC4FEADC4C00FB0C1126
:10559000C14228BF09184CEB03335DF804EB10EB54
:1055A000410143EBC250B2F57C0F38BF704729D59B
:1055B00012F0F00F1CBF00F1C04000F00040704737
:1055C000008182838485868788898B8C8D8E8F91DC
:1055D0009293959697999A9C9D9FA0A2A3A5A7A800
:1055E000AAACAEB0B2B3B5B7B9BCBEC0C2C5C7C92C
:1055F000CCCED1D4D7D9DCDFE2E6E9ECF0F3F7FA90
:10560000FE0000004FEA400C0CF1807CBCF17E4FA4
:1056100028BF7047B0F1C04000F073B990EA010FA5
:105620000CEAD11348BF42F48072624538BF63452B
:1056300007D213F47F0F16D080EA010000F000407B
:10564000704710B500F017F9097EFC3E00F005B870
:1056500080EA010000F00040704780EA010000F09D
:10566000004000F04EB912F47F0F04BF02487047AB
:1056700080EA010000F045B90000C07F41000B0E38
:10568000D3F19E0208D950F400034FEA032323FA12
:1056900002F048BF4042704710B500F0ECF800BF80
:1056A00049922480002070476FF0004282EA200077
:1056B0007047000010F0004148BF4042B0FA80F34C
:1056C00010FA03F2C3F19D030BD051EAC35101EB71
:1056D0001220530638BF704700F1010008BF20F0C8
:1056E00001007047B0FA80F310FA03F2C3F19D0392
:1056F0000AD0D90501EB1220530638BF704700F1DC
:10570000010008BF20F001007047000050EA010CC2
:1057100000F113801CF5000F58BFBCF5000F01D439
:105720008842704707D710F5000F58BF11F5000FDA
:1057300015D488427047894270471CF5000F04D584
:10574000BCF5000FF7D5814270474FF0807C1CEB11
:10575000400F38BF1CEB410F01D28142704710B59A
:1057600000F089F8922449004FF000504FF080512A
:10577000FFF7B6BE4FF47F0C1CEAD0121EBF1CEA26
:10578000D11392EA0C0F93EA0C0F00F0478090EAD5
:10579000010F48BF42F480724FF0004C4CEA0020E9
:1057A0004CEA012102EB0302A0FB0113A2F5000267
:1057B000002918BF43F001035B0028BF4FEA330301
:1057C00042EB22425FEA132C4CEBC2502EBFBCEBE3
:1057D000436FB2F57C0F70474FEA036CBCF1004F8A
:1057E00008BF20F00100B2F57C0F38BF70470BD521
:1057F00082F0FF0212F5803FC8BF704700F1C04041
:10580000D8BF00F00040704700F5000C5FEA4C0C78
:1058100048BF7047B0F1C04000F073B890EA010F84
:105820000CEAD11348BF42F48072624538BF634529
:1058300004D280EA010000F00040704710B500F08B
:105840001AF800BF8900013E00F007B800F009B85F
:105850005FEA410C5FEA1C6C08D080EA010000F0AE
:1058600050B85FEA400C5FEA1C6CF6D14FF0004084
:10587000A0F5800070470EF1020E2EF0030E5EF8C8
:10588000044B244204D44FEA4102B2F17F4F11D8B5
:105890004FEA4003B3F17F4F0CD80ED14FEAD07CD2
:1058A000B2F17F4F0CEB4C0C0CF1020C08BF4CEB2F
:1058B000D17C04E04FF0080C01E04FEAD17C0CEB06
:1058C0004C0324FA03F404F00704B4F1040C06D2E8
:1058D0000EEB840CBDE810404CF0010C6047DFE893
:1058E0000CF0070802024FF00040A0F5800010BD48
:1058F0000846420018BFD2F1807288BF00F0004015
:1059000010BDFF2141EAD050C005704751EA000C9C
:1059100000F113801CF5000F58BFBCF5000F01D437
:105920008142704707D711F5000F58BF10F5000FDF
:1059300015D481427047894270471CF5000F04D589
:10594000BCF5000FF7D5884270474FF0807C1CEB08
:10595000410F38BF1CEB400F01D28842704780EAEC
:10596000010081EA000180EA0100FFF7F8BE80F043
:10597000004090EA010F7FF558AD81F0004100F042
:1059800008B8000090EA010F48BF81F000413FF5E0
:105990004CAD421A04D882F00042A0EB0200114440
:1059A0004FEAD0524FF07F4C1CEA410FA2EBD1538B
:1059B00018BF9CEA026F4AD04FF0004C4CEA00201E
:1059C0004CEA012121FA03FCB0EB0C0C0FD412F0CD
:1059D000FE0F36D05FEA4C001DD5001240EBC250DE
:1059E00038BF70471CF03F0F18BF70470BE0A2F1A3
:1059F00001025FEA1C2040EBC25038BF70471CF028
:105A00007F0F18BF7047C3F12003994014BF401E99
:105A100020F00100704780084FEA122308BF70474A
:105A2000B0FA80FCA2EB0C02CCF1280C60FA0CF06E
:105A300093EA122F04BF00EBC25070474FEAC370C5
:105A40007047130A5FEADC1008BF7047F6E79CEA6C
:105A5000026F04D010EA5C0F08BF0020704710B539
:105A6000FFF709FF40DFF63E81F000407047FDF789
:105A7000B5BD0CF00F03092B08BF082000F05980BA
:105A80000A2B0BD0082B18BF704708BF1CF0400F23
:105A90000AD04FF000004FF0000170471CF0400F9B
:105AA00018BF4FF0004070471CF0100F08D020F0D6
:105AB000704300F07F4242EAD3014FEA43707047DF
:105AC00000F0604021F07F4242EA000201F07F4096
:105AD00040EA727070474FF0FF0C4CF4E06C1CEA27
