:020000040800F2
:10000000000A0020C1100008990200089B020008A5
:100010009F020008A3020008A702000800000000D9
:10002000000000000000000000000000AB0200081B
:10003000AD02000800000000AF020008B102000895
:10004000DB100008DB100008DB100008DB100008E4
:10005000DB100008DB100008DB100008DB100008D4
:10006000DB100008DB100008DB100008DB100008C4
:10007000DB100008DB100008DB100008DB100008B4
:10008000DB100008DB100008DB100008DB100008A4
:10009000DB100008DB100008DB100008DB10000894
:1000A000DB100008DB100008DB100008DB10000884
:1000B000DB100008DB100008DB100008DB10000874
:1000C000DB100008DB100008DB100008DB10000864
:1000D000DB100008F30F0008DB100008DB1000083D
:1000E000DB100008DB100008DB100008DB10000844
:1000F000DB100008DB100008DB100008DB10000834
:10010000DB100008DB10000861070008DB100008A6
:10011000DB100008DB100008DB100008DB10000813
:10012000DB100008DB100008DB100008DB10000803
:1001300000F002F800F05FF80AA090E8000C82449A
:100140008344AAF10107DA4501D100F054F8AFF277
:10015000090EBAE80F0013F0010F18BFFB1A43F0A5
:1001600001031847B0390000D03900000A444FF0AD
:10017000000C10F8013B13F0070408BF10F8014B06
:100180001D1108BF10F8015B641E05D010F8016B4B
:10019000641E01F8016BF9D113F0080F1EBF10F8AF
:1001A000014BAD1C0C1B09D16D1E58BF01F801CBD2
:1001B000FAD505E014F8016B01F8016B6D1EF9D555
:1001C0009142D6D37047000000230024002500266A
:1001D000103A28BF78C1FBD8520728BF30C148BFAA
:1001E0000B607047642902F0C784002070471FB578
:1001F0001FBD10B510BD02F0FCFD1146FFF7F7FF63
:1002000000F008F802F01AFE03B4FFF7F2FF03BC97
:1002100000F094FE4FF4A06001F0F6FC00F024FE24
:100220004FF4E13000F099FE00F034F900F055FD94
:1002300000F00EFC00F0E0FA00231A464FF07E5169
:10024000114800F0A6FB00231A464FF07E510F48DC
:1002500000F09FFB00231A464FF07E510C4800F03F
:1002600098FB00231A464FF07E510A4800F091FB9C
:10027000472144F61F6000F029F9472141F28730F9
:1002800000F074F900BFFEE760020020B002002019
:100290003802002088020020704700BFFEE700BF40
:1002A000FEE700BFFEE700BFFEE7704770477047FC
:1002B000704700000CB50020019000906C48006869
:1002C00040F480306A49086000BF6948006800F463
:1002D000003000900198401C0190009818B90198D6
:1002E000B0F5A06FF1D16248006800F4003010B1A1
:1002F0000120009001E0002000900098012843D1E7
:100300005C48006840F010005A49086008460068E0
:1003100020F0030008600846006840F00200086012
:10032000534840685249486008464068486008465B
:10033000406840F4806048600846406820F47C10C3
:1003400048600846406840F4E81048600846006885
:1003500040F08070086000BF4548006800F0007001
:100360000028F9D04248406820F003004049486026
:100370000846406840F00200486000BF3C484068C2
:1003800000F00C000828F9D10CBD10B5FFF792FF62
:1003900010BD10B53648006840F0010034490860CF
:1003A00008464068344908403149486008460068BA
:1003B000324908402E4908600846006820F4802031
:1003C00008600846406820F4FE0048604FF41F00B3
:1003D0008860FFF7DAFF4FF000602949086010BD20
:1003E00010B5002100200022214B5B6803F00C01B6
:1003F00021B1042906D0082928D107E0214B224C3D
:10040000236027E01F4B204C236023E0184B5B68E0
:1004100003F47010164B5B6803F48032022303EB85
:10042000904022B9194B4343174C23600DE0104B09
:100430005B6803F4003323B1144B4343124C236035
:1004400003E0104B4343104C236003E00D4B0E4C74
:10045000236000BF00BF064B5B68C3F303130C4C63
:10046000E15C094B1B68CB40074C236010BD0000CA
:1004700000100240002002400000FFF8FFFFF6FEDF
:1004800008ED00E000127A000000002000093D00A5
:100490000400002008B50121102001F04DF94FF4AF
:1004A0000050ADF8000010208DF8030003208DF8F7
:1004B00002006946044800F083FE4FF400510248F0
:1004C00000F02BFF08BD00000010014030B589B0DE
:1004D00005460C460121022001F03BF901210420D0
:1004E00001F02AF9C020ADF8200018208DF8230073
:1004F00003208DF8220008A91A4800F061FEADF82B
:100500001850ADF814400020ADF81A00ADF81600F0
:1005100005A9154801F0BAFC7020ADF804000120CF
:10052000ADF806000020ADF80A000220ADF80C007E
:1005300001A90D4801F0E7FC01A90B4801F025FDD8
:100540000821094802F02EF90821074802F033F982
:100550000121054802F0F6F80121034801F0F2FFFD
:1005600009B030BD00080140000400407FB50546D9
:100570000C460121082001F0ECF8ADF80850ADF868
:1005800004400020ADF80A00ADF8060001A9B74804
:1005900001F07CFC01221146B44801F0EEFF32204C
:1005A0008DF8000001208DF8010003208DF8020075
:1005B00001208DF80300684601F02BFB0121AB48B8
:1005C00001F0C0FF7FBD4A1E91B203E000224254F9
:1005D0004A1E91B20029F9DC704703468B4201DACA
:1005E00008467047934201DD1046FAE71846F8E7DF
:1005F0002DE9F04706460F469D49304602F00AFDB8
:1006000082469C4902F006FD81469B4902F028FC87
:10061000804602F093FC84B23946984802F0FAFC16
:100620008246944902F0F6FC8146954902F018FC96
:10063000804602F083FC85B240F26A4240F2EA61F1
:1006400020B2FFF7CAFF84B240F2744240F2C261A6
:1006500028B2FFF7C2FF85B221468A4802F00AFAA3
:100660002946884802F008FABDE8F08710B58648A8
:10067000006802F083FC0446844B224684480168EB
:10068000844800F045F98448006802F077FC04468D
:100690007E4B22467E480168804800F039F9804848
:1006A000006802F06BFC04467E4B22467E480168DF
:1006B0007E4800F02DF97E48006802F05FFC044699
:1006C000784B2246784801687A4800F021F975484D
:1006D00001686E480068FFF78BFF10BD10B57648C3
:1006E000008800F40040002839D0012073490870C8
:1006F00073480078AA2829D171484078FF2825D16D
:100700006F48C0786E49897840EA01205E490860E8
:100710006B4840796A49097940EA012060490860DC
:100720005948006867490968401A5B4908605C4895
:10073000006865490968401A5D49086058480068C2
:1007400061490860504800685E49086000205A49C5
:100750000880012240F225515C4801F02CF910BDBF
:1007600010B50121414802F0B6F900283FD0FFF74B
:10077000B5FFFFF77BFF14215548FFF724FF4248E0
:1007800054A10268524802F0BBF9514A00210846C0
:1007900000F01CFA14214E48FFF715FF404850A105
:1007A00002684B4802F0ACF9494A0221002000F0EF
:1007B0000DFA39484DA10268454802F0A1F9444AB2
:1007C0000421002000F002FA39484BA10268404899
:1007D00002F096F93E4A0621002000F0F7F9494858
:1007E000006808B9012000E00020464908600121A6
:1007F0001E4802F081F910BD08B50121282000F043
:100800009BFF3820ADF8000010208DF80300032076
:100810008DF8020069463C4800F0D2FC0420ADF897
:10082000000010208DF8030003208DF802006946B7
:10083000364800F0C5FC0421344800F06EFD10215C
:10084000314800F06AFD28212F4800F068FDFFF7CD
:1008500045FF08BD10B50021044802F00BF941F630
:10086000CA41024802F008F910BD0000000C004027
:10087000000020C400007A440040DD44008013449E
:1008800000808E4400040040180000203800002042
:10089000300000206002002024000020B002002070
:1008A000140000203C0000202C0000203802002012
:1008B00028000020880200200C02002040000020B8
:1008C000D8020020200000201C0000200038014039
:1008D000240200206C6F63615F783A253664000063
:1008E0006C6F63615F793A253664000073706565EB
:1008F000645F783A2536640073706565645F793AA1
:1009000025366400B4012242000C0140001401406D
:100910002DE9F04104460D4616461F4620686060EA
:100920003146284602F074FC20602168A06802F07D
:1009300097FAA0601949A06802F038FC02D2174863
:10094000A06006E01649A06802F030FB01D214480E
:10095000A0602168E06802F05DFBA061A1682069E9
:1009600002F058FBE061D4E9000102F051FC80463E
:10097000616902F04FFB2062D4E9060102F070FACF
:100980008046216A02F06CFA6062606A3860BDE8F5
:10099000F081C16002614361704700000000FA43CA
:1009A0000000FAC370B504460E462EB14FF48061C4
:1009B000FE4800F0B2FC04E04FF48061FB4800F018
:1009C000AEFC4FF48051F94800F0A9FC00251BE073
:1009D0004FF40051F54800F0A2FC04F0800028B16B
:1009E0004FF40041F14800F098FC04E04FF400415E
:1009F000EE4800F094FC4FF40051EC4800F08DFC00
:100A00006006040E681CC5B2082DE1DB4FF480516E
:100A1000E64800F082FC4FF48061E44800F07DFC81
:100A200070BD70B504460D4605F1B001C8B2002195
:100A3000FFF7B8FF102141EA14100021FFF7B2FFC1
:100A400004F00F0141F001000021FFF7ABFF70BD82
:100A500010B500218D20FFF7A5FF00211420FFF71E
:100A6000A1FF0021AF20FFF79DFF10BD10B50021B1
:100A70008D20FFF797FF00211020FFF793FF002143
:100A8000AE20FFF78FFF10BD70B5002419E004F110
:100A9000B001C8B20021FFF785FF00210846FFF72B
:100AA00081FF00211020FFF77DFF002505E00121D7
:100AB0000020FFF777FF681CC5B2802DF7DB601CB4
:100AC000C4B2082CE3DB70BD2DE9F04107460E46A9
:100AD000904600250024A8F12000C5B27F2F02DD3A
:100AE0000027B01CC6B231463846FFF79AFF0024F3
:100AF00008E004EB0511AE4A505C0121FFF752FFFC
:100B0000601CC4B2082CF4DB701CC1B23846FFF77D
:100B100088FF002409E004EB05110831A44A505C69
:100B20000121FFF73FFF601CC4B2082CF3DBBDE8D6
:100B3000F08110B50246012000E050430B00A1F106
:100B40000104E1B2F9D110BD2DE9FF5F07469146DE
:100B50001D460E9E4FF0000A002433E0281B401E65
:100B6000C1B20A20FFF7E5FFB9FBF0F00A21B0FBA4
:100B7000F1F201FB1208BAF1000F13D1681EA04276
:100B800010DDB8F1000F0BD1B34606EBDB71491055
:100B900001FB0471C8B220220199FFF795FF0FE015
:100BA0004FF0010AB34606EBDB71491001FB0471FB
:100BB000C8B208F13001CAB20199FFF785FF00BF42
:100BC000601CC4B2AC42C9DBBDE8FF9F2DE9F04117
:100BD00004460F46154600260EE0AA5D394620461B
:100BE000FFF772FF04F10800C4B2782C02DD002484
:100BF000B81CC7B2701CC6B2A85D0028EDD1BDE814
:100C0000F0812DE9F04180460E4615460027314619
:100C10004046FFF706FF00240AE0664A02EB851112
:100C2000085D0121FFF7BEFE781CC7B2601CC4B28C
:100C3000102CF2DB701CC1B24046FFF7F2FE00241C
:100C40000CE06900491C5B4A02EB4111085D01217F
:100C5000FFF7A8FE781CC7B2601CC4B2102CF0DBF2
:100C6000BDE8F0812DE9F05F06460F4690461C4630
:100C7000DDF828A04FF0000BE11704EB5171C9100B
:100C8000A4EBC10131B92046E11704EB5171C1F366
:100C9000C70506E02046E11704EB5171C910491C55
:100CA000CDB23D4615E029463046FFF7BAFEB146C3
:100CB0000BE059460BF1010B1AF801000121FFF777
:100CC00071FE09F1010000F0FF09C145F1DB681C6C
:100CD000C5B2A542E7DBBDE8F09F08B501212020A1
:100CE00000F02AFD0420ADF8000010208DF803006C
:100CF00003208DF8020069462F4800F061FA0421B4
:100D00002D4800F00AFB0121082000F015FD4BF6EC
:100D10000240ADF8000010208DF8030003208DF88C
:100D200002006946214800F04BFA4BF602411F4889
:100D300000F0F3FA4FF400611C4800F0EEFA642072
:100D400000F0CFF84FF40061184800F0E8FAC8202E
:100D500000F0C7F84FF40061144800F0DEFA0021FB
:100D6000AE20FFF71FFE00210846FFF71BFE002103
:100D70001020FFF717FE00214020FFF713FE00218F
:100D80008120FFF70FFE0021CF20FFF70BFE00218F
:100D9000A120FFF707FE0021C820FFF703FE002176
:100DA000A620FFF7FFFD0021A82007E0000C01406E
:100DB000223500084100002000140140FFF7F2FD39
:100DC00000213F20FFF7EEFD0021D320FFF7EAFDD1
:100DD00000210846FFF7E6FD0021D520FFF7E2FDE0
:100DE00000218020FFF7DEFD0021D920FFF7DAFD8A
:100DF0000021F120FFF7D6FD0021DA20FFF7D2FD18
:100E000000211220FFF7CEFD0021DB20FFF7CAFDF5
:100E100000214020FFF7C6FD00212020FFF7C2FD82
:100E200000210220FFF7BEFD00218D20FFF7BAFD53
:100E300000211420FFF7B6FD0021A420FFF7B2FD2A
:100E40000021A620FFF7AEFD0021AF20FFF7AAFD8D
:100E50000021AF20FFF7A6FDFFF716FE0021084690
:100E6000FFF7DFFD08BD000010B56FF0040000F0D3
:100E70001AFF2E4800682E49B0FBF1F02D4908708A
:100E80000846007800EB4001C1EBC0104FF6FF713F
:100E900001EAC0002849088010BD0146254A1278A1
:100EA0004A434FF0E0235A6100229A611A461269C0
:100EB00042F001021A6100BF4FF0E022106900F019
:100EC00001021AB100F48032002AF5D04FF0E0227E
:100ED000126922F001024FF0E0231A6100229A61A8
:100EE00070470146144A12884A434FF0E0235A6182
:100EF00000229A611A46126942F001021A6100BF8B
:100F00004FF0E022106900F001021AB100F48032C3
:100F1000002AF5D04FF0E022126922F001024FF0D2
:100F2000E0231A6100229A6170470000000000204F
:100F300000127A000202002004020020014600BFD5
:100F4000704700BF5A4A128802F04002002AF9D0C6
:100F5000C2B2574B1B1D1A80704710B586B00446AD
:100F6000012144F2040000F0E7FB4FF40070ADF8FB
:100F7000140003208DF8160018208DF8170005A91D
:100F80004C4800F01DF94FF48060ADF814000420C7
:100F90008DF8170005A9474800F012F925208DF8B3
:100FA000000000208DF801008DF8020001208DF86E
:100FB0000300684600F02DFE01940020ADF8080003
:100FC000ADF80A00ADF80C00ADF810000C20ADF83B
:100FD0000E0001A9364800F056FC012240F22551CE
:100FE000334800F0E8FC0121314800F0D8FC06B09D
:100FF00010BD10B540F225512D4800F0C1FD00286C
:1010000054D02B4800F03CFDC4B2AA2C03D02A488F
:10101000008800B910BDFF2C07D0274800880128A0
:1010200003D1002024490880F4E70D2C07D0224882
:101030000088062803D100201F490880EAE71E48DF
:10104000008800F40040F8B91B48008800F4804094
:1010500090B10A2C03D000201749088026E01648DA
:10106000008840F4004014490880002240F22551D5
:101070000F4800F0A0FC19E00D2C06D10E480088A6
:1010800040F480400C49088010E00B480088C0F311
:101090000D000A490C5408480088401C0649088085
:1010A00008460088C72801DD0020088000BFB1E79E
:1010B00000380140000801400C020020D802002046
:1010C0000948804709480047FEE7FEE7FEE7FEE7DC
:1010D000FEE7FEE7FEE7FEE7FEE7FEE70448054918
:1010E000054A064B704700009303000831010008D1
:1010F00000040020000A0020000600200006002056
:1011000010B50446CC48844208D10121042000F0E7
:101110002DFB0021042000F029FB46E0C748844253
:1011200008D10121082000F021FB0021082000F057
:101130001DFB3AE0C248844208D10121102000F092
:1011400015FB0021102000F011FB2EE0BD48844269
:1011500008D10121202000F009FB0021202000F00F
:1011600005FB22E0B848844208D10121402000F06C
:10117000FDFA0021402000F0F9FA16E0B34884425D
:1011800008D10121802000F0F1FA0021802000F038
:10119000EDFA0AE0AE48844207D10121801500F043
:1011A000E5FA0021A01500F0E1FA10BD10B501210B
:1011B000084600F0DBFA0021012000F0D7FA10BD4C
:1011C0002DE9F041024600250026002000230024DE
:1011D000002791F803C00CF00F0591F803C00CF044
:1011E000100CBCF1000F03D091F802C04CEA0505C9
:1011F00091F800C0BCF1000F31D0146800202BE042
:101200004FF0010C0CFA00F3B1F800C00CEA030631
:101210009E4220D183004FF00F0C0CFA03F7BC4321
:1012200005FA03FC4CEA040491F803C0BCF1280F52
:1012300006D14FF0010C0CFA00FCC2F814C00AE011
:1012400091F803C0BCF1480F05D14FF0010C0CFA26
:1012500000FCC2F810C0401C0828D1D31460B1F8BB
:1012600000C0BCF1FF0F34DD546800202EE000F117
:10127000080C4FF0010808FA0CF3B1F800C00CEAB2
:1012800003069E4221D183004FF00F0C0CFA03F7A6
:10129000BC4305FA03FC4CEA040491F803C0BCF11A
:1012A000280F05D100F1080C08FA0CF8C2F81480D8
:1012B00091F803C0BCF1480F07D100F1080C4FF0C2
:1012C000010808FA0CF8C2F81080401C0828CED398
:1012D0005460BDE8F0814FF6FF71018002218170FA
:1012E0000421C17070470246002093680B400BB187
:1012F000012000E0002070470146886880B27047F6
:1013000002460020D3680B400BB1012000E0002012
:1013100070470146C86880B27047016170474161FB
:1013200070470AB1016100E041617047C1607047D8
:101330004FF480320A4382618161826182698269ED
:10134000704702460020434B18684FF680731840E0
:1013500040EA021008433F4B186070473E49C8619D
:101360007047F0B50A46002300240021002500F054
:101370000046B6F1004F02D1364EF16901E0354E1C
:101380007168C0F3034583B200F44016B6F5401F00
:1013900008D121F070612F4E766826F070662D4FCF
:1013A0007E6012E000F48016B6F5801F06D1032699
:1013B00006FA05F4A14341F0706106E0460D3601DE
:1013C00003FA06F6B14341F0706122B1460D3601D1
:1013D00003FA06F6314300F00046B6F1004F02D1A1
:1013E0001C4EF16101E01B4E7160F0BD30B5002272
:1013F0008B071C0F0F2303FA04F2164B08338C10D3
:1014000053F824309343134C08348D1044F825309E
:1014100023468C1053F824308C07240F00FA04F470
:1014200023430C4C08348D1044F8253030BD0A4954
:10143000DC3108607047000000080140000C0140EA
:10144000001001400014014000180140001C014040
:10145000002001400000014000002042DF480068F9
:1014600040F00100DD49086008464068DC4908405A
:10147000DA49486008460068DA490840D7490860F8
:101480000846006820F4802008600846406820F480
:10149000FE0048604FF41F0088607047CF4909681C
:1014A00021F48031CD4A11601146096821F4802170
:1014B0001160B0F5803F03D0B0F5802F0ED106E06B
:1014C000C649096841F48031C44A116007E0C34944
:1014D000096841F4A021C14A116000E000BF00BFCB
:1014E000704710B501460022002300204A11012A4E
:1014F00002D1BA4C236806E0022A02D1B74C236A13
:1015000001E0B64C636A01F01F02012494401C40C4
:101510000CB1012000E0002010BD38B50020009083
:101520000024002500BF3120FFF7DBFF05460098AF
:10153000401C00900098B0F5A06F01D0002DF2D0B3
:101540003120FFF7CEFF08B1012400E0002420463F
:1015500038BD01460020A14A106820F0F80040EA9A
:10156000C10010607047A049086070470246002023
:101570009A4B586820F47C1042EA01031843974BB9
:101580005860704798490866704701460020934AA2
:10159000506820F003000843506070478F4840684F
:1015A00000F00C007047014600208C4A506820F083
:1015B000F00008435060704701460020874A506899
:1015C00020F4E06008435060704701460020834AE1
:1015D000506820F4605040EAC1005060704729B163
:1015E0007E4A527A02437D4B5A7204E07B4A527A19
:1015F00082437A4B5A7270477B49D83108607047F2
:1016000001460020754A506820F44040084350606D
:1016100070470021714A20321170704A82F8201000
:10162000012802D004280AD104E001216B4A2032AB
:10163000117005E00521694A2032117000E000BFF9
:1016400000BF70476949086070476449096A0143EF
:10165000624A11627047654944390860704730B585
:1016600000210022002400235C4D6D6805F00C0170
:1016700021B1042905D0082923D105E05C4D05607E
:1016800022E05B4D05601FE0544D6D6805F470125B
:10169000524D6D6805F48034022505EB92421CB969
:1016A000544D554305600BE04C4D6D6805F4003515
:1016B0001DB1504D5543056002E04D4D5543056049
:1016C00002E04B4D056000BF00BF444D6D6805F062
:1016D000F0010909484D6B5C0568DD4045603F4DF0
:1016E0006D6805F4E061090A434D6B5C4568DD40B7
:1016F00085603A4D6D6805F46051C90A3E4D6B5CDA
:101700004568DD40C560354D6D6805F44041890B85
:101710003A4D6B5CC568B5FBF3F5056130BD29B189
:101720002E4A526902432D4B5A6104E02B4A5269FA
:1017300082432A4B5A61704729B1284A9269024371
:10174000264B9A6104E0254A92698243234B9A61B1
:10175000704729B1214AD2690243204BDA6104E083
:101760001E4AD26982431D4BDA61704729B11B4A78
:10177000D2680243194BDA6004E0184AD268824307
:10178000164BDA60704729B1144A12690243134BB1
:101790001A6104E0114A12698243104B1A617047C2
:1017A00012494039086070470F49C86470470B49B7
:1017B000C87170470948406A40F080700749486224
:1017C000704701460020054A92680A400AB101208C
:1017D00000E0002070470149887270470010024005
:1017E0000000FFF8FFFFF6FE000042428004424284
:1017F00000127A0000093D000E0200201E020020A7
:1018000010B50446FB48844209D101218803FFF743
:10181000ADFF00214FF48040FFF7A8FF32E0F6480B
:10182000844209D101214804FFF7ADFF00214FF4A4
:101830000030FFF7A8FF25E0F048844209D10121DC
:101840008804FFF7A0FF00214FF48020FFF79BFFE3
:1018500018E0EB48844209D10121C804FFF793FF47
:1018600000214FF40020FFF78EFF0BE0E548844293
:1018700008D101210805FFF786FF00214FF48010F1
:10188000FFF781FF10BD2DE9F04786B005460E46F3
:101890000024A24600BFA1460027B08900B100BFC6
:1018A0002F462C8A4CF6FF700440F08804432C82AB
:1018B000AC894EF6F3100440B08831890843718931
:1018C00008430443AC81AC8A4FF6FF400440B08922
:1018D0000443AC8201A8FFF7C2FEC648874202D18A
:1018E000DDF810A001E0DDF80CA0A88900F40040AC
:1018F00040B10AEBCA0000EB0A1031684900B0FBA6
:10190000F1F807E00AEBCA0000EB0A103168890021
:10191000B0FBF1F86420B8FBF0F004012009642169
:1019200001FB1089A88900F4004040B1322000EB8F
:10193000C900B0FBF1F000F00700044308E03220DA
:1019400000EB09106421B0FBF1F000F00F0004433C
:101950002C8106B0BDE8F0874FF4165101600021DC
:101960008180C18001810C214181002181817047EA
:1019700010B502460020108A4FF2FF0318400B8872
:101980004C8823438C882343CC88234318431082FC
:1019900010BD0021018041808180C180704721B14C
:1019A000828942F40052828104E082894DF6FF73FD
:1019B0001A4082817047F0B50346002400260025B6
:1019C000002040F66A17B94200D100BF1846C1F3A3
:1019D000421401F01F06012707FA06F5012C01D178
:1019E0000C3004E0022C01D1103000E014301AB1A8
:1019F00007682F43076002E00768AF430760F0BD48
:101A00001AB1838A0B43838202E0838A8B438382E9
:101A10007047028A4FF6F0731A400282028A0A4324
:101A20000282704782894FF2FF731A408281828955
:101A30000A438281704721B1828942F00202828189
:101A400004E082894FF6FD731A4082817047028A52
:101A50004FF6DF731A400282028A0A4302827047FD
:101A600021B1028A42F48042028204E0028A4BF6EB
:101A7000FF731A4002827047C1F3080282807047E8
:101A800001468888C0F308007047818941F0010150
:101A900081817047028BD2B20283028B42EA01221B
:101AA00002837047028B02F47F420283028B0A4357
:101AB0000283704721B1828A42F02002828204E0D0
:101AC000828A4FF6DF731A408282704721B1828A80
:101AD00042F01002828204E0828A4FF6EF731A40CD
:101AE0008282704721B1828A42F00802828204E039
:101AF000828A4FF6F7731A408282704721B1828939
:101B000042F40042828103E08289C2F30E028281A4
:101B1000704721B1828A42F40062828204E0828AA4
:101B20004FF2FF731A4082827047828A4FF6FB732E
:101B30001A408282828A0A438282704721B1828A55
:101B400042F00202828204E0828A4FF6FD731A405C
:101B50008282704702460020B1F5007F00D100BFAD
:101B600013880B400BB1012000E00020704701F406
:101B70000072B2F5007F00D100BFCA4302807047F7
:101B800070B50246002400230025002040F66A16A6
:101B9000B14200D100BFC1F3421501F01F0301267D
:101BA00006FA03F3012D02D19689334006E0022D97
:101BB00002D1168A334001E0968A33400C12012686
:101BC00006FA04F41688344013B10CB1012000E089
:101BD000002070BD10B50022002340F66A14A14217
:101BE00000D100BF0A1201249440A3B2DC43048058
:101BF00010BD000000380140004400400048004093
:101C0000004C00400050004031490143314A11600E
:101C1000704770B5002100230F22C47804B32D4C07
:101C2000246804F4E064C4F5E064210AC1F104030B
:101C3000CA40447804FA03F184781440214309012E
:101C4000254C0678A155047804F01F050124AC400A
:101C500005786D11AD0005F1E025C5F8004109E0FA
:101C6000047804F01F050124AC401C4D0678761161
:101C700045F8264070BD1A4A0A400243154B1B1F07
:101C80001A60704739B1134A121D12680243114B92
:101C90001B1D1A6006E00F4A121D126882430D4B8D
:101CA0001B1D1A607047042808D14FF0E021096914
:101CB00041F004014FF0E022116107E04FF0E02114
:101CC000096921F004014FF0E02211617047000022
:101CD0000000FA050CED00E000E400E080E100E027
:101CE00080FFFF1F10B50446FE48844208D1012141
:101CF000C014FFF73BFD0021E014FFF737FDC4E0FF
:101D0000B4F1804F08D101210846FFF73CFD0021C6
:101D10000120FFF738FDB8E0F348844208D10121E3
:101D20000220FFF730FD00210220FFF72CFDACE080
:101D3000EE48844208D101210420FFF724FD002150
:101D40000420FFF720FDA0E0E948844208D10121EA
:101D50000820FFF718FD00210820FFF714FD94E08C
:101D6000E448844208D101211020FFF70CFD002136
:101D70001020FFF708FD88E0DF48844208D10121E8
:101D80002020FFF700FD00212020FFF7FCFC7CE075
:101D9000DA48844208D101214014FFF7E7FC002112
:101DA0006014FFF7E3FC70E0D548844209D10121BB
:101DB000C804FFF7DBFC00214FF40020FFF7D6FC3E
:101DC00063E0D048844209D101210805FFF7CEFC29
:101DD00000214FF48010FFF7C9FC56E0CA48844246
:101DE00009D101214805FFF7C1FC00214FF4001083
:101DF000FFF7BCFC49E0C548844208D101214020DE
:101E0000FFF7C1FC00214020FFF7BDFC3DE0C048CA
:101E1000844208D101218020FFF7B5FC00218020F9
:101E2000FFF7B1FC31E0BB48844208D101218015A5
:101E3000FFF7A9FC0021A015FFF7A5FC25E0B64897
:101E4000844209D101210804FFF790FC00214FF4DE
:101E50008030FFF78BFC18E0B048844209D10121A3
:101E60004804FFF783FC00214FF40030FFF77EFCAD
:101E70000BE0AB48844208D101218804FFF776FCCF
:101E800000214FF48020FFF771FC10BD0022028872
:101E9000944B98420ED0994B98420BD0B0F1804FA2
:101EA00008D0914B984205D0904B984202D0904B6D
:101EB000984204D14FF68F731A404B881A438D4BCA
:101EC000984207D08C4B984204D04FF6FF431A40FB
:101ED000CB881A4302808B8883850B880385814BCE
:101EE00098420BD0854B984208D08B4B984205D036
:101EF0008A4B984202D08A4B984201D10B7A0386D2
:101F000001238382704770B5002400220023058CD2
:101F10004FF6FE7635400584028C8388048B4FF69D
:101F20008F752C40B51E2C400D882C43751E2A4001
:101F30000D892A434D882A436A4DA8420BD06F4D24
:101F4000A84208D0744DA84205D0744DA84202D0D2
:101F5000734DA84213D14FF6F7752A404D892A4395
:101F60004FF6FB752A408D882A434FF6FF652B40BC
:101F70004FF6FF552B408D892B43CD892B43838012
:101F80000483CD888586028470BD70B5002400224C
:101F90000023058C4FF6EF7635400584028C83884C
:101FA000048B48F6FF752C404FF6FF452C400D88FA
:101FB0004FF6FF7606EA05252C434FF6DF752A40DB
:101FC0000D8906EA05152A434D8806EA05152A43B8
:101FD000444DA84202D0494DA8421DD14FF67F750D
:101FE0002A404D894FF6FF7606EA05152A434FF63B
:101FF000BF752A408D8806EA05152A434FF6FF353E
:102000002B404FF2FF752B408D8906EA85052B4347
:10201000CD8906EA85052B4383800483CD88058717
:10202000028470BD70B5002400220023058C4FF699
:10203000FF6635400584028C8388848B4FF68F754C
:102040002C404FF6FC752C400D882C434FF6FF5565
:102050002A400D894FF6FF7606EA05252A434D886A
:1020600006EA05252A431F4DA84202D0234DA84267
:102070001DD14FF2FF752A404D894FF6FF7606EAD3
:1020800005252A434FF6FF352A408D8806EA0525A7
:102090002A434EF6FF752B404DF6FF752B408D8978
:1020A00006EA05152B43CD8906EA05152B438380E7
:1020B0008483CD888587028470BD70B5002200239B
:1020C0000024058C4EF6FF7635400584038C848809
:1020D000828B48F6FF752A404FF6FF452A400D884F
:1020E00020E00000002C01400004004000080040F7
:1020F000000C00400010004000140040003401407B
:10210000004C0140005001400054014000180040C4
:10211000001C0040002000400040014000440140FD
:10212000004801404FF6FF7606EA05252A434DF6A2
:10213000FF752B400D8906EA05352B434D8806EACD
:1021400005352B43FA4DA84202D0FA4DA84208D1DA
:102150004BF6FF752C408D894FF6FF7606EA851504
:102160002C4384808283CD88A0F84050038470BDC6
:10217000828B4FF2FF331A408283828B4FF6FF73BC
:1021800003EA01231A4382837047F0B50C461546D3
:10219000002200210026078C4EF6FF7C07EA0C0780
:1021A0000784828B018C4FF6FF7707EA043640F6EE
:1021B000FF473A404FF6FF7707EA05273A434FF6C5
:1021C000FF7707EA03373A43D94FB8420ED0D94FC9
:1021D000B8420BD0B0F1804F08D0D74FB84205D0ED
:1021E000D64FB84202D0D64FB84206D14DF6FF774F
:1021F000394046F48057394305E047F6FF573940E8
:1022000044F48057394382830184F0BD828B4FF6BA
:10221000F3731A408283828B0A4382837047F0B53E
:102220000C461546002200210026078C4FF6FF6C55
:1022300007EA0C070784828B018C4FF6FF7707EAC9
:1022400004264FF60C773A404FF6FF7707EA03175C
:102250002F433A43B64FB8420ED0B64FB8420BD0D8
:10226000B0F1804F08D0B44FB84205D0B34FB84258
:1022700002D0B34FB84206D14FF6FF57394046F46B
:102280008077394305E04FF2FF57394044F48077B7
:10229000394382830184F0BD028B4FF2FF331A4031
:1022A0000283028B4FF6FF7303EA01231A43028372
:1022B0007047F0B50C461546002200210026078C19
:1022C0004FF6EF7C07EA0C070784028B018C4FF670
:1022D000FF7707EA041640F6FF473A404FF6FF77CC
:1022E00007EA03373A434FF6FF7707EA05273A43F1
:1022F0008F4FB8420ED08F4FB8420BD0B0F1804F05
:1023000008D08D4FB84205D08C4FB84202D08C4FC8
:10231000B84206D14FF6DF77394046F0100739430F
:1023200005E04FF65F77394044F0100739430283E8
:102330000184F0BD028B4FF6F3731A400283028BC7
:102340000A4302837047F0B50C461546002200216F
:10235000068C4FF6FE773E400684028B018C4FF6CA
:102360000C7632407E1C06EA03162E433243704E32
:10237000B0420ED06F4EB0420BD0B0F1804F08D0BB
:102380006D4EB04205D06D4EB04202D06C4EB042A0
:1023900006D14FF6FD76314044F00106314305E0A9
:1023A0004FF6F576314044F0010631430283018453
:1023B000F0BD70B505460C465D4885420ED05D48BF
:1023C00085420BD0B5F1804F08D05B48854205D0DF
:1023D0005A48854202D05A48854200D100E000BFE9
:1023E000208850B92389A28861882846FFF7ABFF6F
:1023F000E1882846FFF79EFF25E0208804280AD1BF
:102400002389A28861882846FFF753FFE188284680
:10241000FFF742FF17E0208808280AD12389A28805
:1024200061882846FFF7FBFEE1882846FFF7EEFEAD
:1024300009E02389A28861882846FFF7A6FEE18883
:102440002846FFF795FE70BD2DE9F04105460C4684
:1024500000260127608808B9022600E00026A0882F
:10246000012801D1022700E001272088A0B9238993
:10247000A28861882846FFF766FFE1882846FFF7B3
:1024800059FF23893A4631462846FFF712FFE18873
:102490002846FFF701FF13E02389A28861882846B8
:1024A000FFF707FFE1882846FFF7F6FE23893A4643
:1024B00031462846FFF747FFE1882846FFF73AFFF5
:1024C000BDE8F0810A884B881A438B881A43CB8871
:1024D0001A430B891A434B891A438B891A43A0F874
:1024E000442070474FF6FF71818000210180C18038
:1024F0004180017270470021018041808180C1804C
:10250000018141818181C181704700210180418029
:10251000012181800021C18001817047002101805B
:1025200041808180C18001814181818170470000AB
:10253000002C01400034014000040040000800402D
:10254000000C004021B1028842F00102028004E048
:1025500002884FF6FE731A400280704731B1B0F81E
:10256000442042F40042A0F8442005E0B0F84420A2
:10257000C2F30E02A0F8442070471AB183890B43BE
:10258000838102E083898B43838170478182704716
:1025900041EA0203A0F8483070471AB183890B431F
:1025A000838102E083898B438381704701894FF6E1
:1025B000F8721140018170470A46002101894FF6E7
:1025C0008F73194011430181704730B504460D46A1
:1025D00029462046FFF7F0FF208940F007002081C0
:1025E00030BD2DE9F04104460D4616461F46602DCC
:1025F00006D13B46012231462046FFF75AFE05E050
:102600003B46012231462046FFF79DFE29462046E3
:10261000FFF7D2FF208940F007002081BDE8F0815C
:1026200030B50C4600210189C9B24FF6FF7505EAA5
:102630000325154325432943018130BD2DE9F04190
:1026400005460E4617469846002443463A4631460C
:102650002846FFF7E5FF2C894FF6F870044044F058
:1026600007044FF68F70044044F070042C81BDE8DD
:10267000F081F0B504460D4616461F463B463246ED
:1026800029462046FFF7CCFF208940F48040208176
:10269000F0BD0185828270470A46002101884FF60D
:1026A0008F731940114301807047F0B50C461546F1
:1026B0001E460021002200230189028B038C4FF665
:1026C000F877394021434FF6FC473A4040F2011772
:1026D0003A434FF6DD773B404FF6FF7707EA0617A0
:1026E0002F433B43018102830384F0BD0A4600214E
:1026F000018B4FF68F7319401143018370470A46CF
:102700000021018B48F6FF7319404FF6FF7303EA6F
:1027100002231943018370470A460021818B4FF63B
:102720008F7319401143818370470A460021818BC2
:1027300048F6FF7319404FF6FF7303EA022319436B
:102740008183704721B1028842F08002028004E058
:1027500002884FF67F731A400280704721B1828849
:1027600042F00402828004E082884FF6FB731A4034
:102770008280704721B1828842F00802828004E0A2
:1027800082884FF6F7731A408280704721B18288A1
:1027900042F00102828004E082884FF6FE731A4004
:1027A000828070470A460021018B4FF6F77319406B
:1027B0001143018370470A460021018B4FF2FF73DA
:1027C00019404FF6FF7303EA022319430183704750
:1027D0000A460021818B4FF6F7731940114381831C
:1027E00070470A460021818B4FF2FF7319404FF664
:1027F000FF7303EA02231943818370470A460021CD
:10280000018B4FF6FB7319401143018370470A4651
:102810000021018B4FF6FF3319404FF6FF7303EA97
:1028200002231943018370470A460021818B4FF62A
:10283000FB7319401143818370470A460021818B45
:102840004FF6FF3319404FF6FF7303EA0223194393
:10285000818370470A460021018B4FF67F73194030
:102860001143018370470A460021018BC1F30E0119
:102870004FF6FF7303EA02231943018370470A46A8
:102880000021818B4FF67F7319401143818370477C
:102890000A460021818BC1F30E014FF6FF7303EA54
:1028A00002231943818370470A460021018C4FF6A9
:1028B000FD7319401143018470470A460021018CC1
:1028C0004FF6F77319401143018470470A460021FF
:1028D000018C4FF6DF7319404FF6FF7303EA0213C2
:1028E0001943018470470A460021018C4FF67F731B
:1028F00019404FF6FF7303EA02131943018470472E
:102900000A460021018C4FF6FF5319404FF6FF7322
:1029100003EA02231943018470470A460021018C0F
:102920004FF2FF7319404FF6FF7303EA0223194376
:10293000018470470A460021018C4DF6FF7319404F
:102940004FF6FF7303EA023319430184704730B531
:10295000002301248C40A3B2048C9C430484048C87
:1029600002FA01F5ADB22C43048430BD30B500232A
:1029700004248C40A3B2048C9C430484048C02FA8B
:1029800001F5ADB22C43048430BD70B50346002080
:1029900000241846183001258D40ACB21D8CA5438B
:1029A0001D8409B1082909D100EB6100056825F0F3
:1029B000700505600568154305600EE00D1FC5F341
:1029C0004E052844056825F4E045056005684FF686
:1029D000FF7606EA02263543056070BD21B1028804
:1029E00042F00202028004E002884FF6FD731A40B2
:1029F0000280704721B1028842F00402028004E0A4
:102A000002884FF6FB731A400280704721B182881A
:102A100042F08002828004E082884FF67F731A4081
:102A20008280704702884FF6F7731A40028002884E
:102A30000A430280704782884FF68F731A40828063
:102A400082880A438280704702894FF6F8731A40E1
:102A5000028102890A430281704702894FF67F731F
:102A60001A40028102890A430281704781847047BB
:102A700081857047818670470187704781877047DD
:102A8000A0F84010704702884FF6FF431A400280BA
:102A900002880A43028070470146888E70470146CB
:102AA000088F70470146888F70470146B1F8400093
:102AB00070470146888C70470146088D7047024672
:102AC0000020138A0B400BB1012000E0002070476A
:102AD000CA430282704730B502460020002300241A
:102AE000158A05EA0103958905EA010413B10CB1C1
:102AF000012000E0002030BDCA43028270477047C9
:102B00000FB41CB5074B06AA7B4469460090059894
:102B100000F057F90020694600F066F91CBC5DF82A
:102B200014FB0000DD02000070B5044685690068F2
:102B3000C10601D5302600E02026C00707D070BDB1
:102B4000D4E9012130469047206A401C20626D1E66
:102B5000F6D570BD70B5044685690078C00707D109
:102B600070BDD4E9012120209047206A401C2062DA
:102B70006D1EF6D570BD00002DE9F041064600241B
:102B800010687529314616A510D0AFF300800028D3
:102B900002DA404213A507E031688A0701D512A581
:102BA00002E0490704D511A5012401E0AFF300803C
:102BB00000210A2206F1240709E0B0FBF2FCB0FB79
:102BC000F2F302FB1C00303078541846491C0028F0
:102BD000F3D123462A463046BDE8F04100F093B8D1
:102BE000000000002D0000002B000000200000006D
:102BF0002DE9F0474FF0000A89460446C0F820A0AE
:102C00002046E1688847002876D0252806D0D4E9F8
:102C100001219047206A401C2062F1E7E1682046CC
:102C200000258847C4F81CA006460027C4F818A051
:102C30002A2E09D0304600F00BF938B304EB870890
:102C4000303EC8F8186019E059F8041B204604EB20
:102C500087029161E1688847012F064618D1E06933
:102C6000002820DA25F020051DE0D8F8180000EB38
:102C7000800006EB40003038C8F818002046E168B4
:102C80008847064600F0E4F80028EED1012F0AD06C
:102C90002E2E08D12046E16888477F1C0646022F69
:102CA00045F02005C4DBA069002803DA404245F066
:102CB0000105A061E80701D025F01005B6B1A6F125
:102CC0004100192802D8203645F400654A463146AD
:102CD000204625604D46FDF785FA58B1012806D0FB
:102CE000ED1D25F0070000F1080989E704E005F172
:102CF000040985E730468AE7206ABDE8F087704717
:102D00007047704770472DE9F0470D469946924647
:102D1000044600F124080168880604D5E06921F022
:102D20001001216000E00120A84201DD471B00E006
:102D30000027A1697A1902EB0900081AA06120781E
:102D4000C00602D42046FFF7EFFE002608E0D4E9D3
:102D500001211AF806009047206A401C761C206268
:102D60004E45F4DB2078C0060AD52046FFF7DCFE8E
:102D700006E0D4E9012130209047206A401C2062FF
:102D8000381EA7F10107F4DC07E0D4E9012118F8A7
:102D900005009047206A401C2062281EA5F101050D
:102DA000F3DC2046FFF7D6FE2078000602D502208D
:102DB000BDE8F0870120FBE701694A1C0261087841
:102DC000704700B58FB0CDE901310021059105496B
:102DD0007944CDE9031011466846FFF709FF0FB0AB
:102DE00000BD0000E5FFFFFF0A6802F8010B0A6062
:102DF0007047754600F028F8AE4605006946534610
:102E000020F00700854618B020B5FEF767F9BDE849
:102E100020404FF000064FF000074FF000084FF041
:102E2000000B21F00701AC46ACE8C009ACE8C009D2
:102E3000ACE8C009ACE8C0098D4670470446AFF362
:102E400000802046FDF7E0F900487047A00300200D
:102E500030380A2801D20120704700207047000056
:102E600090EA010F48BF81F0004100F1D881421A79
:102E70003CBF801A89184FEAD0524FF07F4C1CEAB1
:102E8000410FA2EBD15318BF9CEA026F00F03B80C8
:102E90004FF0004C4CEA00204CEA012121FA03FCDF
:102EA00010EB0C0C1ED202F1FF325FEA1C2040EB4B
:102EB000C25038BF70471CF07F0F4FEA400C18BF5C
:102EC000BCF17F4F38BF7047C3F12003994008BF62
:102ED00020F00100BCF17F4F38BF7047A0F1C04027
:102EE00000F05FB94FEA3C00000A40EBC25028BF37
:102EF0001CF0FF0F4FEA400CE6D018BFBCF17F4F2B
:102F000038BF7047EAE79CEA026F05D010EA5C0F11
:102F100008BF00F00040704710B500F0FCF800BF9B
:102F200064FBBE3E401058BFC0F14040491058BF3E
:102F3000C1F140418142EFF300807047C10DD1F1F2
:102F40009E0206DB4FEA002343F0004323FA02F01F
:102F50007047004207D54FEA4001B1F1FE4F02D25F
:102F60004FF00000704710B500F0D5F8499224806A
:102F7000002070476FEA20007047000010F0004109
:102F800048BF4042B0FA80F310FA03F2C3F19D0348
:102F90000BD051EAC35101EB1220530638BF7047E2
:102FA00000F1010008BF20F00100704750EA010C59
:102FB00000F113801CF5000F58BFBCF5000F01D4C1
:102FC0008842704707D710F5000F58BF11F5000F62
:102FD00015D488427047894270471CF5000F04D50C
:102FE000BCF5000FF7D5814270474FF0807C1CEB99
:102FF000400F38BF1CEB410F01D28142704710B522
:1030000000F089F8922449004FF000504FF08051B1
:10301000FFF788BF4FF47F0C1CEAD0121EBF1CEADA
:10302000D11392EA0C0F93EA0C0F00F0478090EA5C
:10303000010F48BF42F480724FF0004C4CEA002070
:103040004CEA012102EB0302A0FB0113A2F50002EE
:10305000002918BF43F001035B0028BF4FEA330388
:1030600042EB22425FEA132C4CEBC2502EBFBCEB6A
:10307000436FB2F57C0F70474FEA036CBCF1004F11
:1030800008BF20F00100B2F57C0F38BF70470BD5A8
:1030900082F0FF0212F5803FC8BF704700F1C040C8
:1030A000D8BF00F00040704700F5000C5FEA4C0C00
:1030B00048BF7047B0F1C04000F073B890EA010F0C
:1030C0000CEAD11348BF42F48072624538BF6345B1
:1030D00004D280EA010000F00040704710B500F013
:1030E0001AF800BF8900013E00F007B800F009B8E7
:1030F0005FEA410C5FEA1C6C08D080EA010000F036
:1031000050B85FEA400C5FEA1C6CF6D14FF000400B
:10311000A0F5800070470EF1020E2EF0030E5EF84F
:10312000044B244204D44FEA4102B2F17F4F11D83C
:103130004FEA4003B3F17F4F0CD80ED14FEAD07C59
:10314000B2F17F4F0CEB4C0C0CF1020C08BF4CEBB6
:10315000D17C04E04FF0080C01E04FEAD17C0CEB8D
:103160004C0324FA03F404F00704B4F1040C06D26F
:103170000EEB840CBDE810404CF0010C6047DFE81A
:103180000CF0070802024FF00040A0F5800010BDCF
:103190000846420018BFD2F1807288BF00F000409C
:1031A00010BDFF2141EAD050C005704751EA000C24
:1031B00000F113801CF5000F58BFBCF5000F01D4BF
:1031C0008142704707D711F5000F58BF10F5000F67
:1031D00015D481427047894270471CF5000F04D511
:1031E000BCF5000FF7D5884270474FF0807C1CEB90
:1031F000410F38BF1CEB400F01D28842704780EA74
:10320000010081EA000180EA0100FFF7F8BE00003A
:1032100090EA010F48BF81F000413FF528AE421A05
:1032200004D882F00042A0EB020011444FEAD052D1
:103230004FF07F4C1CEA410FA2EBD15318BF9CEA20
:10324000026F4AD04FF0004C4CEA00204CEA0121BA
:1032500021FA03FCB0EB0C0C0FD412F0FE0F36D0A9
:103260005FEA4C001DD5001240EBC25038BF7047DA
:103270001CF03F0F18BF70470BE0A2F101025FEA9C
:103280001C2040EBC25038BF70471CF07F0F18BFA6
:103290007047C3F12003994014BF401E20F0010085
:1032A000704780084FEA122308BF7047B0FA80FCCD
:1032B000A2EB0C02CCF1280C60FA0CF093EA122F6E
:1032C00004BF00EBC25070474FEAC3707047130A47
:1032D0005FEADC1008BF7047F6E79CEA026F04D093
:1032E00010EA5C0F08BF0020704710B5FFF713FF0E
:1032F00040DFF63E81F00040704700000000000013
:103300000000002F000000000700070000147F14D9
:103310007F1400242A7F2A120062640813230036D7
:103320004955225000000503000000001C22410006
:10333000000041221C000014083E08140008083E4A
:103340000808000000A06000000808080808000045
:1033500060600000002010080402003E5149453E14
:103360000000427F40000042615149460021414532
:103370004B31001814127F10002745454539003C99
:103380004A49493000017109050300364949493667
:1033900000064949291E0000363600000000563656
:1033A000000000081422410000141414141400003A
:1033B0004122140800020151090600324959513EC8
:1033C000007C1211127C007F49494936003E414180
:1033D0004122007F4141221C007F49494941007F31
:1033E00009090901003E4149497A007F0808087F20
:1033F0000000417F4100002040413F01007F081450
:103400002241007F40404040007F020C027F007F4D
:103410000408107F003E4141413E007F0909090632
:10342000003E4151215E007F091929460046494965
:1034300049310001017F0101003F4040403F001F32
:103440002040201F003F4038403F006314081463B1
:1034500000070870080700615149454300007F419B
:10346000410000552A552A55000041417F000004C3
:1034700002010204004040404040000001020400FC
:10348000002054545478007F484444380038444461
:10349000442000384444487F0038545454180008ED
:1034A0007E0901020018A4A4A47C007F080404780B
:1034B0000000447D4000004080847D00007F102893
:1034C00044000000417F4000007C04180478007C28
:1034D0000804047800384444443800FC24242418A8
:1034E0000018242418FC007C0804040800485454E4
:1034F000542000043F444020003C4040207C001CFD
:103500002040201C003C4030403C0044281028440F
:10351000001CA0A0A07C004464544C441414141457
:103520001414000000000000000000000000000073
:103530000000000000F80000000000000033300030
:10354000000000100C06100C060000000000000037
:10355000000040C07840C0784000043F04043F04AD
:103560000400007088FC08300000001820FF211EB5
:103570000000F008F000E018000000211C031E21EC
:103580001E0000F00888700000001E212324192767
:10359000211010160E0000000000000000000000C6
:1035A0000000000000E018040200000000071820DE
:1035B000400000020418E00000000040201807004E
:1035C0000000404080F0804040000202010F0102F4
:1035D0000200000000F0000000000101011F0101D5
:1035E0000100000000000000000080B0700000003A
:1035F00000000000000000000000000101010101C6
:103600000101000000000000000000303000000058
:10361000000000000000806018040060180601002F
:10362000000000E010080810E000000F102020103B
:103630000F00001010F8000000000020203F2020A4
:10364000000000700808088870000030282422213B
:1036500030000030088888483000001820202011F1
:103660000E000000C02010F8000000070424243FD2
:10367000240000F80888880808000019212020117B
:103680000E0000E0108888180000000F11202011A3
:103690000E0000380808C83808000000003F00008D
:1036A00000000070880808887000001C2221212278
:1036B0001C0000E010080810E00000003122221178
:1036C0000F00000000C0C00000000000003030000B
:1036D000000000000080000000000000806000008A
:1036E00000000000804020100800000102040810C3
:1036F00020004040404040404000040404040404D2
:10370000040000081020408000000020100804027F
:103710000100007048080808F00000000030360181
:103720000000C030C828E810E00007182724231440
:103730000B000000C038E0000000203C23020227FC
:10374000382008F8888888700000203F2020201149
:103750000E00C03008080808380007182020201084
:10376000080008F808080810E000203F202020107A
:103770000F0008F88888E8081000203F2020232048
:10378000180008F88888E8081000203F200003008F
:103790000000C03008080838000007182020221E4A
:1037A000020008F808000008F808203F2101012164
:1037B0003F20000808F8080800000020203F2020D3
:1037C000000000000808F8080800C08080807F0022
:1037D000000008F888C028180800203F200126387B
:1037E000200008F8080000000000203F20202020D2
:1037F000300008F8F800F8F80800203F003F003FCC
:10380000200008F830C00008F808203F2000071802
:103810003F00E01008080810E0000F1020202010E2
:103820000F0008F808080808F000203F21010101F6
:103830000000E01008080810E0000F182424385099
:103840004F0008F8888888887000203F2000030C0B
:103850003020007088080808380000382021212214
:103860001C00180808F8080818000000203F200075
:10387000000008F808000008F808001F2020202099
:103880001F000878880000C83808000007380E01BB
:103890000000F80800F80008F800033C0700073CA7
:1038A0000300081868808068180820302C03032C57
:1038B00030200838C800C83808000000203F200029
:1038C000000010080808C8380800203826212020E9
:1038D0001800000000FE020202000000007F4040CD
:1038E0004000000C30C0000000000000000106385D
:1038F000C00000020202FE000000004040407F00C5
:1039000000000000040202020400000000000000A9
:1039100000000000000000000000808080808080A7
:10392000808000020204000000000000000000008F
:1039300000000000808080800000001924222222E4
:103940003F2008F8008080000000003F1120201177
:103950000E000000008080800000000E112020205A
:103960001100000000808088F800000E1120201057
:103970003F200000808080800000001F2222222241
:103980001300008080F0888888180020203F2020C5
:1039900000000000808080808000006B94949493ED
:1039A000600008F8008080800000203F2100002097
:1039B0003F2000809898000000000020203F202039
:1039C0000000000000809898000000C08080807F88
:1039D000000008F8000080808000203F24022D3085
:1039E0002000000808F8000000000020203F2020F0
:1039F00000008080808080808000203F20003F2069
:103A0000003F8080008080800000203F2100002057
:103A10003F200000808080800000001F20202020A8
:103A20001F00808000808000000080FFA120201106
:103A30000E000000008080808000000E112020A079
:103A4000FF80808080008080800020203F21200037
:103A50000100000080808080800000332424242422
:103A60001900008080E0808000000000001F2020FE
:103A700000008080000000808000001F20202010B7
:103A80003F20808080000080808000010E3008068A
:103A9000010080800080008080800F300C030C309B
:103AA0000F0000808000808080000020312E0E31C9
:103AB0002000808080000080808080818E701806C9
:103AC000010000808080808080000021302C222135
:103AD000300000000000807C020200000000003F77
:103AE000404000000000FF00000000000000FF0058
:103AF00000000002027C800000000040403F000007
:103B000000000006010102020404000000000000A1
:103B100000000000343B00080000002024020000E8
:103B20006C010008143C000824020020DC0700009F
:103B3000C80100081184A24A0400091A0102030402
:103B4000060708092360421A8E04D11BF010012ACF
:103B5000FF050215F01B0F04012AFF0502130F18C1
:103B6000094040405F55555575041A5F0C091121F5
:103B7000080C11200F094989790909090F201F1123
:103B80002FFE02424ACA4A0304134202FE000E14E8
:103B9000FF40504C4340404F50505C40FF1BF88862
:103BA000012AFF050215F81B1F08012A7F200B10B0
:103BB0009F80E23B808201000916E2A2928A8682FF
:103BC0008080041840807F172424A4FEA3221B2297
:103BD000CCAA011415080601FF2B0104010511FFF1
:103BE0000202025808101010FF109008C3021108BA
:103BF000080F150444827F01808040432C10284622
:103C000081A0C12D01020304041808060708090257
:043C10000406520054
:0400000508000131BD
:00000001FF
